{
  "_format": "hh-sol-artifact-1",
  "contractName": "MovieNFT",
  "sourceName": "contracts/MovieNft.sol",
  "abi": [
    {
      "inputs": [],
      "stateMutability": "nonpayable",
      "type": "constructor"
    },
    {
      "inputs": [
        {
          "internalType": "address",
          "name": "sender",
          "type": "address"
        },
        {
          "internalType": "uint256",
          "name": "tokenId",
          "type": "uint256"
        },
        {
          "internalType": "address",
          "name": "owner",
          "type": "address"
        }
      ],
      "name": "ERC721IncorrectOwner",
      "type": "error"
    },
    {
      "inputs": [
        {
          "internalType": "address",
          "name": "operator",
          "type": "address"
        },
        {
          "internalType": "uint256",
          "name": "tokenId",
          "type": "uint256"
        }
      ],
      "name": "ERC721InsufficientApproval",
      "type": "error"
    },
    {
      "inputs": [
        {
          "internalType": "address",
          "name": "approver",
          "type": "address"
        }
      ],
      "name": "ERC721InvalidApprover",
      "type": "error"
    },
    {
      "inputs": [
        {
          "internalType": "address",
          "name": "operator",
          "type": "address"
        }
      ],
      "name": "ERC721InvalidOperator",
      "type": "error"
    },
    {
      "inputs": [
        {
          "internalType": "address",
          "name": "owner",
          "type": "address"
        }
      ],
      "name": "ERC721InvalidOwner",
      "type": "error"
    },
    {
      "inputs": [
        {
          "internalType": "address",
          "name": "receiver",
          "type": "address"
        }
      ],
      "name": "ERC721InvalidReceiver",
      "type": "error"
    },
    {
      "inputs": [
        {
          "internalType": "address",
          "name": "sender",
          "type": "address"
        }
      ],
      "name": "ERC721InvalidSender",
      "type": "error"
    },
    {
      "inputs": [
        {
          "internalType": "uint256",
          "name": "tokenId",
          "type": "uint256"
        }
      ],
      "name": "ERC721NonexistentToken",
      "type": "error"
    },
    {
      "inputs": [
        {
          "internalType": "address",
          "name": "owner",
          "type": "address"
        }
      ],
      "name": "OwnableInvalidOwner",
      "type": "error"
    },
    {
      "inputs": [
        {
          "internalType": "address",
          "name": "account",
          "type": "address"
        }
      ],
      "name": "OwnableUnauthorizedAccount",
      "type": "error"
    },
    {
      "anonymous": false,
      "inputs": [
        {
          "indexed": true,
          "internalType": "address",
          "name": "owner",
          "type": "address"
        },
        {
          "indexed": true,
          "internalType": "address",
          "name": "approved",
          "type": "address"
        },
        {
          "indexed": true,
          "internalType": "uint256",
          "name": "tokenId",
          "type": "uint256"
        }
      ],
      "name": "Approval",
      "type": "event"
    },
    {
      "anonymous": false,
      "inputs": [
        {
          "indexed": true,
          "internalType": "address",
          "name": "owner",
          "type": "address"
        },
        {
          "indexed": true,
          "internalType": "address",
          "name": "operator",
          "type": "address"
        },
        {
          "indexed": false,
          "internalType": "bool",
          "name": "approved",
          "type": "bool"
        }
      ],
      "name": "ApprovalForAll",
      "type": "event"
    },
    {
      "anonymous": false,
      "inputs": [
        {
          "indexed": false,
          "internalType": "uint256",
          "name": "tokenId",
          "type": "uint256"
        },
        {
          "indexed": false,
          "internalType": "string",
          "name": "name",
          "type": "string"
        },
        {
          "indexed": false,
          "internalType": "uint256",
          "name": "releaseYear",
          "type": "uint256"
        },
        {
          "indexed": false,
          "internalType": "string",
          "name": "genre",
          "type": "string"
        },
        {
          "indexed": false,
          "internalType": "string",
          "name": "poster",
          "type": "string"
        },
        {
          "indexed": false,
          "internalType": "uint256",
          "name": "shares",
          "type": "uint256"
        },
        {
          "indexed": false,
          "internalType": "uint256",
          "name": "basePrice",
          "type": "uint256"
        }
      ],
      "name": "MovieMinted",
      "type": "event"
    },
    {
      "anonymous": false,
      "inputs": [
        {
          "indexed": true,
          "internalType": "address",
          "name": "previousOwner",
          "type": "address"
        },
        {
          "indexed": true,
          "internalType": "address",
          "name": "newOwner",
          "type": "address"
        }
      ],
      "name": "OwnershipTransferred",
      "type": "event"
    },
    {
      "anonymous": false,
      "inputs": [
        {
          "indexed": false,
          "internalType": "uint256",
          "name": "tokenId",
          "type": "uint256"
        },
        {
          "indexed": false,
          "internalType": "address",
          "name": "buyer",
          "type": "address"
        },
        {
          "indexed": false,
          "internalType": "uint256",
          "name": "amount",
          "type": "uint256"
        },
        {
          "indexed": false,
          "internalType": "uint256",
          "name": "price",
          "type": "uint256"
        }
      ],
      "name": "SharesBought",
      "type": "event"
    },
    {
      "anonymous": false,
      "inputs": [
        {
          "indexed": true,
          "internalType": "address",
          "name": "from",
          "type": "address"
        },
        {
          "indexed": true,
          "internalType": "address",
          "name": "to",
          "type": "address"
        },
        {
          "indexed": true,
          "internalType": "uint256",
          "name": "tokenId",
          "type": "uint256"
        }
      ],
      "name": "Transfer",
      "type": "event"
    },
    {
      "inputs": [
        {
          "internalType": "address",
          "name": "to",
          "type": "address"
        },
        {
          "internalType": "uint256",
          "name": "tokenId",
          "type": "uint256"
        }
      ],
      "name": "approve",
      "outputs": [],
      "stateMutability": "nonpayable",
      "type": "function"
    },
    {
      "inputs": [
        {
          "internalType": "address",
          "name": "owner",
          "type": "address"
        }
      ],
      "name": "balanceOf",
      "outputs": [
        {
          "internalType": "uint256",
          "name": "",
          "type": "uint256"
        }
      ],
      "stateMutability": "view",
      "type": "function"
    },
    {
      "inputs": [
        {
          "internalType": "uint256",
          "name": "tokenId",
          "type": "uint256"
        },
        {
          "internalType": "uint256",
          "name": "amount",
          "type": "uint256"
        }
      ],
      "name": "buyShares",
      "outputs": [],
      "stateMutability": "payable",
      "type": "function"
    },
    {
      "inputs": [
        {
          "internalType": "uint256",
          "name": "tokenId",
          "type": "uint256"
        }
      ],
      "name": "getApproved",
      "outputs": [
        {
          "internalType": "address",
          "name": "",
          "type": "address"
        }
      ],
      "stateMutability": "view",
      "type": "function"
    },
    {
      "inputs": [
        {
          "internalType": "uint256",
          "name": "tokenId",
          "type": "uint256"
        }
      ],
      "name": "getMovieDetails",
      "outputs": [
        {
          "components": [
            {
              "internalType": "string",
              "name": "name",
              "type": "string"
            },
            {
              "internalType": "uint256",
              "name": "releaseYear",
              "type": "uint256"
            },
            {
              "internalType": "string",
              "name": "genre",
              "type": "string"
            },
            {
              "internalType": "string",
              "name": "poster",
              "type": "string"
            },
            {
              "internalType": "uint256",
              "name": "shares",
              "type": "uint256"
            },
            {
              "internalType": "uint256",
              "name": "basePrice",
              "type": "uint256"
            }
          ],
          "internalType": "struct MovieNFT.Movie",
          "name": "",
          "type": "tuple"
        }
      ],
      "stateMutability": "view",
      "type": "function"
    },
    {
      "inputs": [
        {
          "internalType": "uint256",
          "name": "tokenId",
          "type": "uint256"
        }
      ],
      "name": "getMyShares",
      "outputs": [
        {
          "internalType": "uint256",
          "name": "",
          "type": "uint256"
        }
      ],
      "stateMutability": "view",
      "type": "function"
    },
    {
      "inputs": [
        {
          "internalType": "address",
          "name": "owner",
          "type": "address"
        },
        {
          "internalType": "address",
          "name": "operator",
          "type": "address"
        }
      ],
      "name": "isApprovedForAll",
      "outputs": [
        {
          "internalType": "bool",
          "name": "",
          "type": "bool"
        }
      ],
      "stateMutability": "view",
      "type": "function"
    },
    {
      "inputs": [
        {
          "internalType": "string",
          "name": "movieName",
          "type": "string"
        },
        {
          "internalType": "uint256",
          "name": "releaseYear",
          "type": "uint256"
        },
        {
          "internalType": "string",
          "name": "genre",
          "type": "string"
        },
        {
          "internalType": "string",
          "name": "poster",
          "type": "string"
        },
        {
          "internalType": "uint256",
          "name": "shares",
          "type": "uint256"
        },
        {
          "internalType": "uint256",
          "name": "basePrice",
          "type": "uint256"
        }
      ],
      "name": "mintNFT",
      "outputs": [],
      "stateMutability": "nonpayable",
      "type": "function"
    },
    {
      "inputs": [
        {
          "internalType": "uint256",
          "name": "",
          "type": "uint256"
        }
      ],
      "name": "movieOwners",
      "outputs": [
        {
          "internalType": "address",
          "name": "",
          "type": "address"
        }
      ],
      "stateMutability": "view",
      "type": "function"
    },
    {
      "inputs": [
        {
          "internalType": "uint256",
          "name": "",
          "type": "uint256"
        },
        {
          "internalType": "address",
          "name": "",
          "type": "address"
        }
      ],
      "name": "movieShares",
      "outputs": [
        {
          "internalType": "uint256",
          "name": "",
          "type": "uint256"
        }
      ],
      "stateMutability": "view",
      "type": "function"
    },
    {
      "inputs": [
        {
          "internalType": "uint256",
          "name": "",
          "type": "uint256"
        }
      ],
      "name": "movies",
      "outputs": [
        {
          "internalType": "string",
          "name": "name",
          "type": "string"
        },
        {
          "internalType": "uint256",
          "name": "releaseYear",
          "type": "uint256"
        },
        {
          "internalType": "string",
          "name": "genre",
          "type": "string"
        },
        {
          "internalType": "string",
          "name": "poster",
          "type": "string"
        },
        {
          "internalType": "uint256",
          "name": "shares",
          "type": "uint256"
        },
        {
          "internalType": "uint256",
          "name": "basePrice",
          "type": "uint256"
        }
      ],
      "stateMutability": "view",
      "type": "function"
    },
    {
      "inputs": [],
      "name": "name",
      "outputs": [
        {
          "internalType": "string",
          "name": "",
          "type": "string"
        }
      ],
      "stateMutability": "view",
      "type": "function"
    },
    {
      "inputs": [],
      "name": "owner",
      "outputs": [
        {
          "internalType": "address",
          "name": "",
          "type": "address"
        }
      ],
      "stateMutability": "view",
      "type": "function"
    },
    {
      "inputs": [
        {
          "internalType": "uint256",
          "name": "tokenId",
          "type": "uint256"
        }
      ],
      "name": "ownerOf",
      "outputs": [
        {
          "internalType": "address",
          "name": "",
          "type": "address"
        }
      ],
      "stateMutability": "view",
      "type": "function"
    },
    {
      "inputs": [],
      "name": "renounceOwnership",
      "outputs": [],
      "stateMutability": "nonpayable",
      "type": "function"
    },
    {
      "inputs": [
        {
          "internalType": "address",
          "name": "from",
          "type": "address"
        },
        {
          "internalType": "address",
          "name": "to",
          "type": "address"
        },
        {
          "internalType": "uint256",
          "name": "tokenId",
          "type": "uint256"
        }
      ],
      "name": "safeTransferFrom",
      "outputs": [],
      "stateMutability": "nonpayable",
      "type": "function"
    },
    {
      "inputs": [
        {
          "internalType": "address",
          "name": "from",
          "type": "address"
        },
        {
          "internalType": "address",
          "name": "to",
          "type": "address"
        },
        {
          "internalType": "uint256",
          "name": "tokenId",
          "type": "uint256"
        },
        {
          "internalType": "bytes",
          "name": "data",
          "type": "bytes"
        }
      ],
      "name": "safeTransferFrom",
      "outputs": [],
      "stateMutability": "nonpayable",
      "type": "function"
    },
    {
      "inputs": [
        {
          "internalType": "address",
          "name": "operator",
          "type": "address"
        },
        {
          "internalType": "bool",
          "name": "approved",
          "type": "bool"
        }
      ],
      "name": "setApprovalForAll",
      "outputs": [],
      "stateMutability": "nonpayable",
      "type": "function"
    },
    {
      "inputs": [
        {
          "internalType": "uint256",
          "name": "tokenId",
          "type": "uint256"
        },
        {
          "internalType": "string",
          "name": "movieName",
          "type": "string"
        }
      ],
      "name": "setMovie",
      "outputs": [],
      "stateMutability": "nonpayable",
      "type": "function"
    },
    {
      "inputs": [
        {
          "internalType": "bytes4",
          "name": "interfaceId",
          "type": "bytes4"
        }
      ],
      "name": "supportsInterface",
      "outputs": [
        {
          "internalType": "bool",
          "name": "",
          "type": "bool"
        }
      ],
      "stateMutability": "view",
      "type": "function"
    },
    {
      "inputs": [],
      "name": "symbol",
      "outputs": [
        {
          "internalType": "string",
          "name": "",
          "type": "string"
        }
      ],
      "stateMutability": "view",
      "type": "function"
    },
    {
      "inputs": [
        {
          "internalType": "uint256",
          "name": "",
          "type": "uint256"
        }
      ],
      "name": "tokenIdToMovie",
      "outputs": [
        {
          "internalType": "string",
          "name": "",
          "type": "string"
        }
      ],
      "stateMutability": "view",
      "type": "function"
    },
    {
      "inputs": [
        {
          "internalType": "uint256",
          "name": "tokenId",
          "type": "uint256"
        }
      ],
      "name": "tokenURI",
      "outputs": [
        {
          "internalType": "string",
          "name": "",
          "type": "string"
        }
      ],
      "stateMutability": "view",
      "type": "function"
    },
    {
      "inputs": [
        {
          "internalType": "uint256",
          "name": "",
          "type": "uint256"
        }
      ],
      "name": "totalSharesSold",
      "outputs": [
        {
          "internalType": "uint256",
          "name": "",
          "type": "uint256"
        }
      ],
      "stateMutability": "view",
      "type": "function"
    },
    {
      "inputs": [],
      "name": "totaltokenid",
      "outputs": [
        {
          "internalType": "uint256",
          "name": "",
          "type": "uint256"
        }
      ],
      "stateMutability": "view",
      "type": "function"
    },
    {
      "inputs": [
        {
          "internalType": "address",
          "name": "from",
          "type": "address"
        },
        {
          "internalType": "address",
          "name": "to",
          "type": "address"
        },
        {
          "internalType": "uint256",
          "name": "tokenId",
          "type": "uint256"
        }
      ],
      "name": "transferFrom",
      "outputs": [],
      "stateMutability": "nonpayable",
      "type": "function"
    },
    {
      "inputs": [
        {
          "internalType": "address",
          "name": "newOwner",
          "type": "address"
        }
      ],
      "name": "transferOwnership",
      "outputs": [],
      "stateMutability": "nonpayable",
      "type": "function"
    }
  ],
  "bytecode": "0x608060405260006007553480156200001657600080fd5b503360405180604001604052806008815260200167135bdd9a5953919560c21b815250604051806040016040528060048152602001631353919560e21b8152508160009081620000679190620001b1565b506001620000768282620001b1565b5050506001600160a01b038116620000a857604051631e4fbdf760e01b81526000600482015260240160405180910390fd5b620000b381620000ba565b506200027d565b600680546001600160a01b038381166001600160a01b0319831681179093556040519116919082907f8be0079c531659141344cd1fd0a4f28419497f9722a3daafe3b4186f6b6457e090600090a35050565b634e487b7160e01b600052604160045260246000fd5b600181811c908216806200013757607f821691505b6020821081036200015857634e487b7160e01b600052602260045260246000fd5b50919050565b601f821115620001ac57600081815260208120601f850160051c81016020861015620001875750805b601f850160051c820191505b81811015620001a85782815560010162000193565b5050505b505050565b81516001600160401b03811115620001cd57620001cd6200010c565b620001e581620001de845462000122565b846200015e565b602080601f8311600181146200021d5760008415620002045750858301515b600019600386901b1c1916600185901b178555620001a8565b600085815260208120601f198616915b828110156200024e578886015182559484019460019091019084016200022d565b50858210156200026d5787850151600019600388901b60f8161c191681555b5050505050600190811b01905550565b6120a0806200028d6000396000f3fe60806040526004361061019c5760003560e01c806370a08231116100ec578063beebc5da1161008a578063dd7d7b9611610064578063dd7d7b96146104ea578063e985e9c51461050a578063f2fde38b1461052a578063fe106e211461054a57600080fd5b8063beebc5da14610481578063c87b56dd14610494578063d9954d70146104b457600080fd5b806395d89b41116100c657806395d89b41146103ff578063a22cb46514610414578063b88d4fde14610434578063bb7056a51461045457600080fd5b806370a08231146103ac578063715018a6146103cc5780638da5cb5b146103e157600080fd5b806342842e0e116101595780634d967d5c116101335780634d967d5c1461031f5780635c7b14c11461033f5780636352211e1461036c5780636ad3fd3f1461038c57600080fd5b806342842e0e146102a4578063463a1aa5146102c45780634d0e5ad91461030a57600080fd5b806301ffc9a7146101a157806306fdde03146101d6578063081812fc146101f8578063095ea7b31461023057806323b872dd14610252578063404ebf6c14610272575b600080fd5b3480156101ad57600080fd5b506101c16101bc366004611904565b610582565b60405190151581526020015b60405180910390f35b3480156101e257600080fd5b506101eb6105d4565b6040516101cd9190611971565b34801561020457600080fd5b50610218610213366004611984565b610666565b6040516001600160a01b0390911681526020016101cd565b34801561023c57600080fd5b5061025061024b3660046119b9565b61068f565b005b34801561025e57600080fd5b5061025061026d3660046119e3565b61069e565b34801561027e57600080fd5b5061029261028d366004611984565b61072e565b6040516101cd96959493929190611a1f565b3480156102b057600080fd5b506102506102bf3660046119e3565b6108fa565b3480156102d057600080fd5b506102fc6102df366004611a74565b600960209081526000928352604080842090915290825290205481565b6040519081526020016101cd565b34801561031657600080fd5b506007546102fc565b34801561032b57600080fd5b506101eb61033a366004611984565b61091a565b34801561034b57600080fd5b5061035f61035a366004611984565b6109b4565b6040516101cd9190611aa0565b34801561037857600080fd5b50610218610387366004611984565b610be0565b34801561039857600080fd5b506102506103a7366004611bcf565b610beb565b3480156103b857600080fd5b506102fc6103c7366004611c73565b610dd8565b3480156103d857600080fd5b50610250610e20565b3480156103ed57600080fd5b506006546001600160a01b0316610218565b34801561040b57600080fd5b506101eb610e34565b34801561042057600080fd5b5061025061042f366004611c8e565b610e43565b34801561044057600080fd5b5061025061044f366004611cca565b610e4e565b34801561046057600080fd5b506102fc61046f366004611984565b600a6020526000908152604090205481565b61025061048f366004611d46565b610e66565b3480156104a057600080fd5b506101eb6104af366004611984565b611024565b3480156104c057600080fd5b506102186104cf366004611984565b600b602052600090815260409020546001600160a01b031681565b3480156104f657600080fd5b50610250610505366004611d68565b611099565b34801561051657600080fd5b506101c1610525366004611daf565b611128565b34801561053657600080fd5b50610250610545366004611c73565b611156565b34801561055657600080fd5b506102fc610565366004611984565b600090815260096020908152604080832033845290915290205490565b60006001600160e01b031982166380ac58cd60e01b14806105b357506001600160e01b03198216635b5e139f60e01b145b806105ce57506301ffc9a760e01b6001600160e01b03198316145b92915050565b6060600080546105e390611dd9565b80601f016020809104026020016040519081016040528092919081815260200182805461060f90611dd9565b801561065c5780601f106106315761010080835404028352916020019161065c565b820191906000526020600020905b81548152906001019060200180831161063f57829003601f168201915b5050505050905090565b600061067182611194565b506000828152600460205260409020546001600160a01b03166105ce565b61069a8282336111cd565b5050565b6001600160a01b0382166106cd57604051633250574960e11b8152600060048201526024015b60405180910390fd5b60006106da8383336111da565b9050836001600160a01b0316816001600160a01b031614610728576040516364283d7b60e01b81526001600160a01b03808616600483015260248201849052821660448201526064016106c4565b50505050565b60086020526000908152604090208054819061074990611dd9565b80601f016020809104026020016040519081016040528092919081815260200182805461077590611dd9565b80156107c25780601f10610797576101008083540402835291602001916107c2565b820191906000526020600020905b8154815290600101906020018083116107a557829003601f168201915b5050505050908060010154908060020180546107dd90611dd9565b80601f016020809104026020016040519081016040528092919081815260200182805461080990611dd9565b80156108565780601f1061082b57610100808354040283529160200191610856565b820191906000526020600020905b81548152906001019060200180831161083957829003601f168201915b50505050509080600301805461086b90611dd9565b80601f016020809104026020016040519081016040528092919081815260200182805461089790611dd9565b80156108e45780601f106108b9576101008083540402835291602001916108e4565b820191906000526020600020905b8154815290600101906020018083116108c757829003601f168201915b5050505050908060040154908060050154905086565b61091583838360405180602001604052806000815250610e4e565b505050565b600c602052600090815260409020805461093390611dd9565b80601f016020809104026020016040519081016040528092919081815260200182805461095f90611dd9565b80156109ac5780601f10610981576101008083540402835291602001916109ac565b820191906000526020600020905b81548152906001019060200180831161098f57829003601f168201915b505050505081565b6109ed6040518060c001604052806060815260200160008152602001606081526020016060815260200160008152602001600081525090565b60008281526008602052604090819020815160c08101909252805482908290610a1590611dd9565b80601f0160208091040260200160405190810160405280929190818152602001828054610a4190611dd9565b8015610a8e5780601f10610a6357610100808354040283529160200191610a8e565b820191906000526020600020905b815481529060010190602001808311610a7157829003601f168201915b5050505050815260200160018201548152602001600282018054610ab190611dd9565b80601f0160208091040260200160405190810160405280929190818152602001828054610add90611dd9565b8015610b2a5780601f10610aff57610100808354040283529160200191610b2a565b820191906000526020600020905b815481529060010190602001808311610b0d57829003601f168201915b50505050508152602001600382018054610b4390611dd9565b80601f0160208091040260200160405190810160405280929190818152602001828054610b6f90611dd9565b8015610bbc5780601f10610b9157610100808354040283529160200191610bbc565b820191906000526020600020905b815481529060010190602001808311610b9f57829003601f168201915b50505050508152602001600482015481526020016005820154815250509050919050565b60006105ce82611194565b610bf36112d3565b60008211610c575760405162461bcd60e51b815260206004820152602b60248201527f4e756d626572206f6620736861726573206d757374206265206772656174657260448201526a103a3430b7103d32b9379760a91b60648201526084016106c4565b60008111610cb55760405162461bcd60e51b815260206004820152602560248201527f42617365207072696365206d7573742062652067726561746572207468616e206044820152643d32b9379760d91b60648201526084016106c4565b600780549081906000610cc783611e29565b90915550506040805160c0810182528881526020808201899052818301889052606082018790526080820186905260a08201859052600084815260089091529190912081518190610d189082611e88565b506020820151600182015560408201516002820190610d379082611e88565b5060608201516003820190610d4c9082611e88565b506080820151600482015560a090910151600590910155610d6d3382611300565b6000818152600b60205260409081902080546001600160a01b03191633179055517fc283cf582cd7904e4743501729a72efd9f2c327b3ec72c02b81ed6a772ea0fae90610dc79083908a908a908a908a908a908a90611f48565b60405180910390a150505050505050565b60006001600160a01b038216610e04576040516322718ad960e21b8152600060048201526024016106c4565b506001600160a01b031660009081526003602052604090205490565b610e286112d3565b610e32600061131a565b565b6060600180546105e390611dd9565b61069a33838361136c565b610e5984848461069e565b610728338585858561140b565b60008281526008602052604090206004810154821115610ec85760405162461bcd60e51b815260206004820152601c60248201527f4e6f7420656e6f7567682073686172657320617661696c61626c652e0000000060448201526064016106c4565b6000816005015483610eda9190611fa4565b9050803414610f235760405162461bcd60e51b815260206004820152601560248201527424b731b7b93932b1ba1022ba3432b91039b2b73a1760591b60448201526064016106c4565b82826004016000828254610f379190611fbb565b9091555050600084815260096020908152604080832033845290915281208054859290610f65908490611fce565b90915550506000848152600a602052604081208054859290610f88908490611fce565b90915550506000848152600b60205260408082205490516001600160a01b03909116913480156108fc02929091818181858888f19350505050158015610fd2573d6000803e3d6000fd5b506005820154604080518681523360208201528082018690526060810192909252517f0831583cced7554a81e1cd091e811afaadc7d575a17fbd354716145bb597efc99181900360800190a150505050565b606061102f82611194565b50600061104760408051602081019091526000815290565b905060008151116110675760405180602001604052806000815250611092565b8061107184611536565b604051602001611082929190611fe1565b6040516020818303038152906040525b9392505050565b6110a16112d3565b336110ab83610be0565b6001600160a01b0316146111105760405162461bcd60e51b815260206004820152602660248201527f4f6e6c792074686520746f6b656e206f776e65722063616e2073657420746865604482015265206d6f76696560d01b60648201526084016106c4565b60008281526008602052604090206109158282611e88565b6001600160a01b03918216600090815260056020908152604080832093909416825291909152205460ff1690565b61115e6112d3565b6001600160a01b03811661118857604051631e4fbdf760e01b8152600060048201526024016106c4565b6111918161131a565b50565b6000818152600260205260408120546001600160a01b0316806105ce57604051637e27328960e01b8152600481018490526024016106c4565b61091583838360016115c9565b6000828152600260205260408120546001600160a01b0390811690831615611207576112078184866116cf565b6001600160a01b03811615611245576112246000856000806115c9565b6001600160a01b038116600090815260036020526040902080546000190190555b6001600160a01b03851615611274576001600160a01b0385166000908152600360205260409020805460010190555b60008481526002602052604080822080546001600160a01b0319166001600160a01b0389811691821790925591518793918516917fddf252ad1be2c89b69c2b068fc378daa952ba7f163c4a11628f55a4df523b3ef91a4949350505050565b6006546001600160a01b03163314610e325760405163118cdaa760e01b81523360048201526024016106c4565b61069a828260405180602001604052806000815250611733565b600680546001600160a01b038381166001600160a01b0319831681179093556040519116919082907f8be0079c531659141344cd1fd0a4f28419497f9722a3daafe3b4186f6b6457e090600090a35050565b6001600160a01b03821661139e57604051630b61174360e31b81526001600160a01b03831660048201526024016106c4565b6001600160a01b03838116600081815260056020908152604080832094871680845294825291829020805460ff191686151590811790915591519182527f17307eab39ab6107e8899845ad3d59bd9653f200f220920489ca2b5937696c31910160405180910390a3505050565b6001600160a01b0383163b1561152f57604051630a85bd0160e11b81526001600160a01b0384169063150b7a029061144d908890889087908790600401612010565b6020604051808303816000875af1925050508015611488575060408051601f3d908101601f191682019092526114859181019061204d565b60015b6114f1573d8080156114b6576040519150601f19603f3d011682016040523d82523d6000602084013e6114bb565b606091505b5080516000036114e957604051633250574960e11b81526001600160a01b03851660048201526024016106c4565b805181602001fd5b6001600160e01b03198116630a85bd0160e11b1461152d57604051633250574960e11b81526001600160a01b03851660048201526024016106c4565b505b5050505050565b606060006115438361174b565b600101905060008167ffffffffffffffff81111561156357611563611b23565b6040519080825280601f01601f19166020018201604052801561158d576020820181803683370190505b5090508181016020015b600019016f181899199a1a9b1b9c1cb0b131b232b360811b600a86061a8153600a850494508461159757509392505050565b80806115dd57506001600160a01b03821615155b1561169f5760006115ed84611194565b90506001600160a01b038316158015906116195750826001600160a01b0316816001600160a01b031614155b801561162c575061162a8184611128565b155b156116555760405163a9fbf51f60e01b81526001600160a01b03841660048201526024016106c4565b811561169d5783856001600160a01b0316826001600160a01b03167f8c5be1e5ebec7d5bd14f71427d1e84f3dd0314c0f7b2291e5b200ac8c7c3b92560405160405180910390a45b505b5050600090815260046020526040902080546001600160a01b0319166001600160a01b0392909216919091179055565b6116da838383611823565b610915576001600160a01b03831661170857604051637e27328960e01b8152600481018290526024016106c4565b60405163177e802f60e01b81526001600160a01b0383166004820152602481018290526044016106c4565b61173d8383611889565b61091533600085858561140b565b60008072184f03e93ff9f4daa797ed6e38ed64bf6a1f0160401b831061178a5772184f03e93ff9f4daa797ed6e38ed64bf6a1f0160401b830492506040015b6d04ee2d6d415b85acef810000000083106117b6576d04ee2d6d415b85acef8100000000830492506020015b662386f26fc1000083106117d457662386f26fc10000830492506010015b6305f5e10083106117ec576305f5e100830492506008015b612710831061180057612710830492506004015b60648310611812576064830492506002015b600a83106105ce5760010192915050565b60006001600160a01b038316158015906118815750826001600160a01b0316846001600160a01b0316148061185d575061185d8484611128565b8061188157506000828152600460205260409020546001600160a01b038481169116145b949350505050565b6001600160a01b0382166118b357604051633250574960e11b8152600060048201526024016106c4565b60006118c1838360006111da565b90506001600160a01b03811615610915576040516339e3563760e11b8152600060048201526024016106c4565b6001600160e01b03198116811461119157600080fd5b60006020828403121561191657600080fd5b8135611092816118ee565b60005b8381101561193c578181015183820152602001611924565b50506000910152565b6000815180845261195d816020860160208601611921565b601f01601f19169290920160200192915050565b6020815260006110926020830184611945565b60006020828403121561199657600080fd5b5035919050565b80356001600160a01b03811681146119b457600080fd5b919050565b600080604083850312156119cc57600080fd5b6119d58361199d565b946020939093013593505050565b6000806000606084860312156119f857600080fd5b611a018461199d565b9250611a0f6020850161199d565b9150604084013590509250925092565b60c081526000611a3260c0830189611945565b8760208401528281036040840152611a4a8188611945565b90508281036060840152611a5e8187611945565b6080840195909552505060a00152949350505050565b60008060408385031215611a8757600080fd5b82359150611a976020840161199d565b90509250929050565b602081526000825160c06020840152611abc60e0840182611945565b9050602084015160408401526040840151601f1980858403016060860152611ae48383611945565b9250606086015191508085840301608086015250611b028282611945565b915050608084015160a084015260a084015160c08401528091505092915050565b634e487b7160e01b600052604160045260246000fd5b600067ffffffffffffffff80841115611b5457611b54611b23565b604051601f8501601f19908116603f01168101908282118183101715611b7c57611b7c611b23565b81604052809350858152868686011115611b9557600080fd5b858560208301376000602087830101525050509392505050565b600082601f830112611bc057600080fd5b61109283833560208501611b39565b60008060008060008060c08789031215611be857600080fd5b863567ffffffffffffffff80821115611c0057600080fd5b611c0c8a838b01611baf565b9750602089013596506040890135915080821115611c2957600080fd5b611c358a838b01611baf565b95506060890135915080821115611c4b57600080fd5b50611c5889828a01611baf565b9350506080870135915060a087013590509295509295509295565b600060208284031215611c8557600080fd5b6110928261199d565b60008060408385031215611ca157600080fd5b611caa8361199d565b915060208301358015158114611cbf57600080fd5b809150509250929050565b60008060008060808587031215611ce057600080fd5b611ce98561199d565b9350611cf76020860161199d565b925060408501359150606085013567ffffffffffffffff811115611d1a57600080fd5b8501601f81018713611d2b57600080fd5b611d3a87823560208401611b39565b91505092959194509250565b60008060408385031215611d5957600080fd5b50508035926020909101359150565b60008060408385031215611d7b57600080fd5b82359150602083013567ffffffffffffffff811115611d9957600080fd5b611da585828601611baf565b9150509250929050565b60008060408385031215611dc257600080fd5b611dcb8361199d565b9150611a976020840161199d565b600181811c90821680611ded57607f821691505b602082108103611e0d57634e487b7160e01b600052602260045260246000fd5b50919050565b634e487b7160e01b600052601160045260246000fd5b600060018201611e3b57611e3b611e13565b5060010190565b601f82111561091557600081815260208120601f850160051c81016020861015611e695750805b601f850160051c820191505b8181101561152d57828155600101611e75565b815167ffffffffffffffff811115611ea257611ea2611b23565b611eb681611eb08454611dd9565b84611e42565b602080601f831160018114611eeb5760008415611ed35750858301515b600019600386901b1c1916600185901b17855561152d565b600085815260208120601f198616915b82811015611f1a57888601518255948401946001909101908401611efb565b5085821015611f385787850151600019600388901b60f8161c191681555b5050505050600190811b01905550565b87815260e060208201526000611f6160e0830189611945565b8760408401528281036060840152611f798188611945565b90508281036080840152611f8d8187611945565b60a0840195909552505060c0015295945050505050565b80820281158282048414176105ce576105ce611e13565b818103818111156105ce576105ce611e13565b808201808211156105ce576105ce611e13565b60008351611ff3818460208801611921565b835190830190612007818360208801611921565b01949350505050565b6001600160a01b038581168252841660208201526040810183905260806060820181905260009061204390830184611945565b9695505050505050565b60006020828403121561205f57600080fd5b8151611092816118ee56fea2646970667358221220c872dcb9e2bd376425c163290b1a0f70049ab771e580a78ac690fe6c8e3b36a364736f6c63430008140033",
  "linkReferences": {},
  "deployedLinkReferences": {}
}