{
  "_format": "hh-sol-artifact-1",
  "contractName": "MovieNFT",
  "sourceName": "contracts/MovieNft.sol",
  "abi": [
    {
      "inputs": [],
      "stateMutability": "nonpayable",
      "type": "constructor"
    },
    {
      "inputs": [
        {
          "internalType": "address",
          "name": "sender",
          "type": "address"
        },
        {
          "internalType": "uint256",
          "name": "tokenId",
          "type": "uint256"
        },
        {
          "internalType": "address",
          "name": "owner",
          "type": "address"
        }
      ],
      "name": "ERC721IncorrectOwner",
      "type": "error"
    },
    {
      "inputs": [
        {
          "internalType": "address",
          "name": "operator",
          "type": "address"
        },
        {
          "internalType": "uint256",
          "name": "tokenId",
          "type": "uint256"
        }
      ],
      "name": "ERC721InsufficientApproval",
      "type": "error"
    },
    {
      "inputs": [
        {
          "internalType": "address",
          "name": "approver",
          "type": "address"
        }
      ],
      "name": "ERC721InvalidApprover",
      "type": "error"
    },
    {
      "inputs": [
        {
          "internalType": "address",
          "name": "operator",
          "type": "address"
        }
      ],
      "name": "ERC721InvalidOperator",
      "type": "error"
    },
    {
      "inputs": [
        {
          "internalType": "address",
          "name": "owner",
          "type": "address"
        }
      ],
      "name": "ERC721InvalidOwner",
      "type": "error"
    },
    {
      "inputs": [
        {
          "internalType": "address",
          "name": "receiver",
          "type": "address"
        }
      ],
      "name": "ERC721InvalidReceiver",
      "type": "error"
    },
    {
      "inputs": [
        {
          "internalType": "address",
          "name": "sender",
          "type": "address"
        }
      ],
      "name": "ERC721InvalidSender",
      "type": "error"
    },
    {
      "inputs": [
        {
          "internalType": "uint256",
          "name": "tokenId",
          "type": "uint256"
        }
      ],
      "name": "ERC721NonexistentToken",
      "type": "error"
    },
    {
      "inputs": [
        {
          "internalType": "address",
          "name": "owner",
          "type": "address"
        }
      ],
      "name": "OwnableInvalidOwner",
      "type": "error"
    },
    {
      "inputs": [
        {
          "internalType": "address",
          "name": "account",
          "type": "address"
        }
      ],
      "name": "OwnableUnauthorizedAccount",
      "type": "error"
    },
    {
      "anonymous": false,
      "inputs": [
        {
          "indexed": true,
          "internalType": "address",
          "name": "owner",
          "type": "address"
        },
        {
          "indexed": true,
          "internalType": "address",
          "name": "approved",
          "type": "address"
        },
        {
          "indexed": true,
          "internalType": "uint256",
          "name": "tokenId",
          "type": "uint256"
        }
      ],
      "name": "Approval",
      "type": "event"
    },
    {
      "anonymous": false,
      "inputs": [
        {
          "indexed": true,
          "internalType": "address",
          "name": "owner",
          "type": "address"
        },
        {
          "indexed": true,
          "internalType": "address",
          "name": "operator",
          "type": "address"
        },
        {
          "indexed": false,
          "internalType": "bool",
          "name": "approved",
          "type": "bool"
        }
      ],
      "name": "ApprovalForAll",
      "type": "event"
    },
    {
      "anonymous": false,
      "inputs": [
        {
          "indexed": false,
          "internalType": "uint256",
          "name": "tokenId",
          "type": "uint256"
        },
        {
          "indexed": false,
          "internalType": "string",
          "name": "name",
          "type": "string"
        },
        {
          "indexed": false,
          "internalType": "uint256",
          "name": "releaseYear",
          "type": "uint256"
        },
        {
          "indexed": false,
          "internalType": "string",
          "name": "genre",
          "type": "string"
        },
        {
          "indexed": false,
          "internalType": "string",
          "name": "poster",
          "type": "string"
        },
        {
          "indexed": false,
          "internalType": "uint256",
          "name": "shares",
          "type": "uint256"
        },
        {
          "indexed": false,
          "internalType": "uint256",
          "name": "basePrice",
          "type": "uint256"
        }
      ],
      "name": "MovieMinted",
      "type": "event"
    },
    {
      "anonymous": false,
      "inputs": [
        {
          "indexed": true,
          "internalType": "address",
          "name": "previousOwner",
          "type": "address"
        },
        {
          "indexed": true,
          "internalType": "address",
          "name": "newOwner",
          "type": "address"
        }
      ],
      "name": "OwnershipTransferred",
      "type": "event"
    },
    {
      "anonymous": false,
      "inputs": [
        {
          "indexed": false,
          "internalType": "uint256",
          "name": "tokenId",
          "type": "uint256"
        },
        {
          "indexed": false,
          "internalType": "address",
          "name": "buyer",
          "type": "address"
        },
        {
          "indexed": false,
          "internalType": "uint256",
          "name": "amount",
          "type": "uint256"
        },
        {
          "indexed": false,
          "internalType": "uint256",
          "name": "price",
          "type": "uint256"
        }
      ],
      "name": "SharesBought",
      "type": "event"
    },
    {
      "anonymous": false,
      "inputs": [
        {
          "indexed": true,
          "internalType": "address",
          "name": "from",
          "type": "address"
        },
        {
          "indexed": true,
          "internalType": "address",
          "name": "to",
          "type": "address"
        },
        {
          "indexed": true,
          "internalType": "uint256",
          "name": "tokenId",
          "type": "uint256"
        }
      ],
      "name": "Transfer",
      "type": "event"
    },
    {
      "inputs": [
        {
          "internalType": "address",
          "name": "to",
          "type": "address"
        },
        {
          "internalType": "uint256",
          "name": "tokenId",
          "type": "uint256"
        }
      ],
      "name": "approve",
      "outputs": [],
      "stateMutability": "nonpayable",
      "type": "function"
    },
    {
      "inputs": [
        {
          "internalType": "address",
          "name": "owner",
          "type": "address"
        }
      ],
      "name": "balanceOf",
      "outputs": [
        {
          "internalType": "uint256",
          "name": "",
          "type": "uint256"
        }
      ],
      "stateMutability": "view",
      "type": "function"
    },
    {
      "inputs": [
        {
          "internalType": "uint256",
          "name": "tokenId",
          "type": "uint256"
        },
        {
          "internalType": "uint256",
          "name": "amount",
          "type": "uint256"
        }
      ],
      "name": "buyShares",
      "outputs": [],
      "stateMutability": "payable",
      "type": "function"
    },
    {
      "inputs": [
        {
          "internalType": "uint256",
          "name": "tokenId",
          "type": "uint256"
        }
      ],
      "name": "getApproved",
      "outputs": [
        {
          "internalType": "address",
          "name": "",
          "type": "address"
        }
      ],
      "stateMutability": "view",
      "type": "function"
    },
    {
      "inputs": [
        {
          "internalType": "uint256",
          "name": "tokenId",
          "type": "uint256"
        }
      ],
      "name": "getMovieDetails",
      "outputs": [
        {
          "components": [
            {
              "internalType": "string",
              "name": "name",
              "type": "string"
            },
            {
              "internalType": "uint256",
              "name": "releaseYear",
              "type": "uint256"
            },
            {
              "internalType": "string",
              "name": "genre",
              "type": "string"
            },
            {
              "internalType": "string",
              "name": "poster",
              "type": "string"
            },
            {
              "internalType": "uint256",
              "name": "shares",
              "type": "uint256"
            },
            {
              "internalType": "uint256",
              "name": "basePrice",
              "type": "uint256"
            }
          ],
          "internalType": "struct MovieNFT.Movie",
          "name": "",
          "type": "tuple"
        }
      ],
      "stateMutability": "view",
      "type": "function"
    },
    {
      "inputs": [
        {
          "internalType": "uint256",
          "name": "tokenId",
          "type": "uint256"
        }
      ],
      "name": "getMyShares",
      "outputs": [
        {
          "internalType": "uint256",
          "name": "",
          "type": "uint256"
        }
      ],
      "stateMutability": "view",
      "type": "function"
    },
    {
      "inputs": [
        {
          "internalType": "address",
          "name": "owner",
          "type": "address"
        },
        {
          "internalType": "address",
          "name": "operator",
          "type": "address"
        }
      ],
      "name": "isApprovedForAll",
      "outputs": [
        {
          "internalType": "bool",
          "name": "",
          "type": "bool"
        }
      ],
      "stateMutability": "view",
      "type": "function"
    },
    {
      "inputs": [
        {
          "internalType": "string",
          "name": "movieName",
          "type": "string"
        },
        {
          "internalType": "uint256",
          "name": "releaseYear",
          "type": "uint256"
        },
        {
          "internalType": "string",
          "name": "genre",
          "type": "string"
        },
        {
          "internalType": "string",
          "name": "poster",
          "type": "string"
        },
        {
          "internalType": "uint256",
          "name": "shares",
          "type": "uint256"
        },
        {
          "internalType": "uint256",
          "name": "basePrice",
          "type": "uint256"
        }
      ],
      "name": "mintNFT",
      "outputs": [],
      "stateMutability": "nonpayable",
      "type": "function"
    },
    {
      "inputs": [
        {
          "internalType": "uint256",
          "name": "",
          "type": "uint256"
        }
      ],
      "name": "movieOwners",
      "outputs": [
        {
          "internalType": "address",
          "name": "",
          "type": "address"
        }
      ],
      "stateMutability": "view",
      "type": "function"
    },
    {
      "inputs": [
        {
          "internalType": "uint256",
          "name": "",
          "type": "uint256"
        },
        {
          "internalType": "address",
          "name": "",
          "type": "address"
        }
      ],
      "name": "movieShares",
      "outputs": [
        {
          "internalType": "uint256",
          "name": "",
          "type": "uint256"
        }
      ],
      "stateMutability": "view",
      "type": "function"
    },
    {
      "inputs": [
        {
          "internalType": "uint256",
          "name": "",
          "type": "uint256"
        }
      ],
      "name": "movies",
      "outputs": [
        {
          "internalType": "string",
          "name": "name",
          "type": "string"
        },
        {
          "internalType": "uint256",
          "name": "releaseYear",
          "type": "uint256"
        },
        {
          "internalType": "string",
          "name": "genre",
          "type": "string"
        },
        {
          "internalType": "string",
          "name": "poster",
          "type": "string"
        },
        {
          "internalType": "uint256",
          "name": "shares",
          "type": "uint256"
        },
        {
          "internalType": "uint256",
          "name": "basePrice",
          "type": "uint256"
        }
      ],
      "stateMutability": "view",
      "type": "function"
    },
    {
      "inputs": [],
      "name": "name",
      "outputs": [
        {
          "internalType": "string",
          "name": "",
          "type": "string"
        }
      ],
      "stateMutability": "view",
      "type": "function"
    },
    {
      "inputs": [],
      "name": "owner",
      "outputs": [
        {
          "internalType": "address",
          "name": "",
          "type": "address"
        }
      ],
      "stateMutability": "view",
      "type": "function"
    },
    {
      "inputs": [
        {
          "internalType": "uint256",
          "name": "tokenId",
          "type": "uint256"
        }
      ],
      "name": "ownerOf",
      "outputs": [
        {
          "internalType": "address",
          "name": "",
          "type": "address"
        }
      ],
      "stateMutability": "view",
      "type": "function"
    },
    {
      "inputs": [],
      "name": "renounceOwnership",
      "outputs": [],
      "stateMutability": "nonpayable",
      "type": "function"
    },
    {
      "inputs": [
        {
          "internalType": "address",
          "name": "from",
          "type": "address"
        },
        {
          "internalType": "address",
          "name": "to",
          "type": "address"
        },
        {
          "internalType": "uint256",
          "name": "tokenId",
          "type": "uint256"
        }
      ],
      "name": "safeTransferFrom",
      "outputs": [],
      "stateMutability": "nonpayable",
      "type": "function"
    },
    {
      "inputs": [
        {
          "internalType": "address",
          "name": "from",
          "type": "address"
        },
        {
          "internalType": "address",
          "name": "to",
          "type": "address"
        },
        {
          "internalType": "uint256",
          "name": "tokenId",
          "type": "uint256"
        },
        {
          "internalType": "bytes",
          "name": "data",
          "type": "bytes"
        }
      ],
      "name": "safeTransferFrom",
      "outputs": [],
      "stateMutability": "nonpayable",
      "type": "function"
    },
    {
      "inputs": [
        {
          "internalType": "address",
          "name": "operator",
          "type": "address"
        },
        {
          "internalType": "bool",
          "name": "approved",
          "type": "bool"
        }
      ],
      "name": "setApprovalForAll",
      "outputs": [],
      "stateMutability": "nonpayable",
      "type": "function"
    },
    {
      "inputs": [
        {
          "internalType": "bytes4",
          "name": "interfaceId",
          "type": "bytes4"
        }
      ],
      "name": "supportsInterface",
      "outputs": [
        {
          "internalType": "bool",
          "name": "",
          "type": "bool"
        }
      ],
      "stateMutability": "view",
      "type": "function"
    },
    {
      "inputs": [],
      "name": "symbol",
      "outputs": [
        {
          "internalType": "string",
          "name": "",
          "type": "string"
        }
      ],
      "stateMutability": "view",
      "type": "function"
    },
    {
      "inputs": [
        {
          "internalType": "uint256",
          "name": "tokenId",
          "type": "uint256"
        }
      ],
      "name": "tokenURI",
      "outputs": [
        {
          "internalType": "string",
          "name": "",
          "type": "string"
        }
      ],
      "stateMutability": "view",
      "type": "function"
    },
    {
      "inputs": [
        {
          "internalType": "uint256",
          "name": "",
          "type": "uint256"
        }
      ],
      "name": "totalSharesSold",
      "outputs": [
        {
          "internalType": "uint256",
          "name": "",
          "type": "uint256"
        }
      ],
      "stateMutability": "view",
      "type": "function"
    },
    {
      "inputs": [
        {
          "internalType": "address",
          "name": "from",
          "type": "address"
        },
        {
          "internalType": "address",
          "name": "to",
          "type": "address"
        },
        {
          "internalType": "uint256",
          "name": "tokenId",
          "type": "uint256"
        }
      ],
      "name": "transferFrom",
      "outputs": [],
      "stateMutability": "nonpayable",
      "type": "function"
    },
    {
      "inputs": [
        {
          "internalType": "address",
          "name": "newOwner",
          "type": "address"
        }
      ],
      "name": "transferOwnership",
      "outputs": [],
      "stateMutability": "nonpayable",
      "type": "function"
    }
  ],
  "bytecode": "0x608060405260006007553480156200001657600080fd5b503360405180604001604052806008815260200167135bdd9a5953919560c21b815250604051806040016040528060048152602001631353919560e21b8152508160009081620000679190620001b1565b506001620000768282620001b1565b5050506001600160a01b038116620000a857604051631e4fbdf760e01b81526000600482015260240160405180910390fd5b620000b381620000ba565b506200027d565b600680546001600160a01b038381166001600160a01b0319831681179093556040519116919082907f8be0079c531659141344cd1fd0a4f28419497f9722a3daafe3b4186f6b6457e090600090a35050565b634e487b7160e01b600052604160045260246000fd5b600181811c908216806200013757607f821691505b6020821081036200015857634e487b7160e01b600052602260045260246000fd5b50919050565b601f821115620001ac57600081815260208120601f850160051c81016020861015620001875750805b601f850160051c820191505b81811015620001a85782815560010162000193565b5050505b505050565b81516001600160401b03811115620001cd57620001cd6200010c565b620001e581620001de845462000122565b846200015e565b602080601f8311600181146200021d5760008415620002045750858301515b600019600386901b1c1916600185901b178555620001a8565b600085815260208120601f198616915b828110156200024e578886015182559484019460019091019084016200022d565b50858210156200026d5787850151600019600388901b60f8161c191681555b5050505050600190811b01905550565b611e82806200028d6000396000f3fe60806040526004361061014b5760003560e01c8063715018a6116100b6578063beebc5da1161006f578063beebc5da146103fb578063c87b56dd1461040e578063d9954d701461042e578063e985e9c514610464578063f2fde38b14610484578063fe106e21146104a457600080fd5b8063715018a6146103465780638da5cb5b1461035b57806395d89b4114610379578063a22cb4651461038e578063b88d4fde146103ae578063bb7056a5146103ce57600080fd5b806342842e0e1161010857806342842e0e14610253578063463a1aa5146102735780635c7b14c1146102b95780636352211e146102e65780636ad3fd3f1461030657806370a082311461032657600080fd5b806301ffc9a71461015057806306fdde0314610185578063081812fc146101a7578063095ea7b3146101df57806323b872dd14610201578063404ebf6c14610221575b600080fd5b34801561015c57600080fd5b5061017061016b36600461172d565b6104dc565b60405190151581526020015b60405180910390f35b34801561019157600080fd5b5061019a61052e565b60405161017c919061179a565b3480156101b357600080fd5b506101c76101c23660046117ad565b6105c0565b6040516001600160a01b03909116815260200161017c565b3480156101eb57600080fd5b506101ff6101fa3660046117e2565b6105e9565b005b34801561020d57600080fd5b506101ff61021c36600461180c565b6105f8565b34801561022d57600080fd5b5061024161023c3660046117ad565b610688565b60405161017c96959493929190611848565b34801561025f57600080fd5b506101ff61026e36600461180c565b610854565b34801561027f57600080fd5b506102ab61028e36600461189d565b600960209081526000928352604080842090915290825290205481565b60405190815260200161017c565b3480156102c557600080fd5b506102d96102d43660046117ad565b610874565b60405161017c91906118c9565b3480156102f257600080fd5b506101c76103013660046117ad565b610aa0565b34801561031257600080fd5b506101ff6103213660046119f8565b610aab565b34801561033257600080fd5b506102ab610341366004611a9c565b610c90565b34801561035257600080fd5b506101ff610cd8565b34801561036757600080fd5b506006546001600160a01b03166101c7565b34801561038557600080fd5b5061019a610cec565b34801561039a57600080fd5b506101ff6103a9366004611ab7565b610cfb565b3480156103ba57600080fd5b506101ff6103c9366004611af3565b610d06565b3480156103da57600080fd5b506102ab6103e93660046117ad565b600a6020526000908152604090205481565b6101ff610409366004611b6f565b610d1e565b34801561041a57600080fd5b5061019a6104293660046117ad565b610edc565b34801561043a57600080fd5b506101c76104493660046117ad565b600b602052600090815260409020546001600160a01b031681565b34801561047057600080fd5b5061017061047f366004611b91565b610f51565b34801561049057600080fd5b506101ff61049f366004611a9c565b610f7f565b3480156104b057600080fd5b506102ab6104bf3660046117ad565b600090815260096020908152604080832033845290915290205490565b60006001600160e01b031982166380ac58cd60e01b148061050d57506001600160e01b03198216635b5e139f60e01b145b8061052857506301ffc9a760e01b6001600160e01b03198316145b92915050565b60606000805461053d90611bbb565b80601f016020809104026020016040519081016040528092919081815260200182805461056990611bbb565b80156105b65780601f1061058b576101008083540402835291602001916105b6565b820191906000526020600020905b81548152906001019060200180831161059957829003601f168201915b5050505050905090565b60006105cb82610fbd565b506000828152600460205260409020546001600160a01b0316610528565b6105f4828233610ff6565b5050565b6001600160a01b03821661062757604051633250574960e11b8152600060048201526024015b60405180910390fd5b6000610634838333611003565b9050836001600160a01b0316816001600160a01b031614610682576040516364283d7b60e01b81526001600160a01b038086166004830152602482018490528216604482015260640161061e565b50505050565b6008602052600090815260409020805481906106a390611bbb565b80601f01602080910402602001604051908101604052809291908181526020018280546106cf90611bbb565b801561071c5780601f106106f15761010080835404028352916020019161071c565b820191906000526020600020905b8154815290600101906020018083116106ff57829003601f168201915b50505050509080600101549080600201805461073790611bbb565b80601f016020809104026020016040519081016040528092919081815260200182805461076390611bbb565b80156107b05780601f10610785576101008083540402835291602001916107b0565b820191906000526020600020905b81548152906001019060200180831161079357829003601f168201915b5050505050908060030180546107c590611bbb565b80601f01602080910402602001604051908101604052809291908181526020018280546107f190611bbb565b801561083e5780601f106108135761010080835404028352916020019161083e565b820191906000526020600020905b81548152906001019060200180831161082157829003601f168201915b5050505050908060040154908060050154905086565b61086f83838360405180602001604052806000815250610d06565b505050565b6108ad6040518060c001604052806060815260200160008152602001606081526020016060815260200160008152602001600081525090565b60008281526008602052604090819020815160c081019092528054829082906108d590611bbb565b80601f016020809104026020016040519081016040528092919081815260200182805461090190611bbb565b801561094e5780601f106109235761010080835404028352916020019161094e565b820191906000526020600020905b81548152906001019060200180831161093157829003601f168201915b505050505081526020016001820154815260200160028201805461097190611bbb565b80601f016020809104026020016040519081016040528092919081815260200182805461099d90611bbb565b80156109ea5780601f106109bf576101008083540402835291602001916109ea565b820191906000526020600020905b8154815290600101906020018083116109cd57829003601f168201915b50505050508152602001600382018054610a0390611bbb565b80601f0160208091040260200160405190810160405280929190818152602001828054610a2f90611bbb565b8015610a7c5780601f10610a5157610100808354040283529160200191610a7c565b820191906000526020600020905b815481529060010190602001808311610a5f57829003601f168201915b50505050508152602001600482015481526020016005820154815250509050919050565b600061052882610fbd565b60008211610b0f5760405162461bcd60e51b815260206004820152602b60248201527f4e756d626572206f6620736861726573206d757374206265206772656174657260448201526a103a3430b7103d32b9379760a91b606482015260840161061e565b60008111610b6d5760405162461bcd60e51b815260206004820152602560248201527f42617365207072696365206d7573742062652067726561746572207468616e206044820152643d32b9379760d91b606482015260840161061e565b600780549081906000610b7f83611c0b565b90915550506040805160c0810182528881526020808201899052818301889052606082018790526080820186905260a08201859052600084815260089091529190912081518190610bd09082611c6a565b506020820151600182015560408201516002820190610bef9082611c6a565b5060608201516003820190610c049082611c6a565b506080820151600482015560a090910151600590910155610c2533826110fc565b6000818152600b60205260409081902080546001600160a01b03191633179055517fc283cf582cd7904e4743501729a72efd9f2c327b3ec72c02b81ed6a772ea0fae90610c7f9083908a908a908a908a908a908a90611d2a565b60405180910390a150505050505050565b60006001600160a01b038216610cbc576040516322718ad960e21b81526000600482015260240161061e565b506001600160a01b031660009081526003602052604090205490565b610ce0611116565b610cea6000611143565b565b60606001805461053d90611bbb565b6105f4338383611195565b610d118484846105f8565b6106823385858585611234565b60008281526008602052604090206004810154821115610d805760405162461bcd60e51b815260206004820152601c60248201527f4e6f7420656e6f7567682073686172657320617661696c61626c652e00000000604482015260640161061e565b6000816005015483610d929190611d86565b9050803414610ddb5760405162461bcd60e51b815260206004820152601560248201527424b731b7b93932b1ba1022ba3432b91039b2b73a1760591b604482015260640161061e565b82826004016000828254610def9190611d9d565b9091555050600084815260096020908152604080832033845290915281208054859290610e1d908490611db0565b90915550506000848152600a602052604081208054859290610e40908490611db0565b90915550506000848152600b60205260408082205490516001600160a01b03909116913480156108fc02929091818181858888f19350505050158015610e8a573d6000803e3d6000fd5b506005820154604080518681523360208201528082018690526060810192909252517f0831583cced7554a81e1cd091e811afaadc7d575a17fbd354716145bb597efc99181900360800190a150505050565b6060610ee782610fbd565b506000610eff60408051602081019091526000815290565b90506000815111610f1f5760405180602001604052806000815250610f4a565b80610f298461135f565b604051602001610f3a929190611dc3565b6040516020818303038152906040525b9392505050565b6001600160a01b03918216600090815260056020908152604080832093909416825291909152205460ff1690565b610f87611116565b6001600160a01b038116610fb157604051631e4fbdf760e01b81526000600482015260240161061e565b610fba81611143565b50565b6000818152600260205260408120546001600160a01b03168061052857604051637e27328960e01b81526004810184905260240161061e565b61086f83838360016113f2565b6000828152600260205260408120546001600160a01b0390811690831615611030576110308184866114f8565b6001600160a01b0381161561106e5761104d6000856000806113f2565b6001600160a01b038116600090815260036020526040902080546000190190555b6001600160a01b0385161561109d576001600160a01b0385166000908152600360205260409020805460010190555b60008481526002602052604080822080546001600160a01b0319166001600160a01b0389811691821790925591518793918516917fddf252ad1be2c89b69c2b068fc378daa952ba7f163c4a11628f55a4df523b3ef91a4949350505050565b6105f482826040518060200160405280600081525061155c565b6006546001600160a01b03163314610cea5760405163118cdaa760e01b815233600482015260240161061e565b600680546001600160a01b038381166001600160a01b0319831681179093556040519116919082907f8be0079c531659141344cd1fd0a4f28419497f9722a3daafe3b4186f6b6457e090600090a35050565b6001600160a01b0382166111c757604051630b61174360e31b81526001600160a01b038316600482015260240161061e565b6001600160a01b03838116600081815260056020908152604080832094871680845294825291829020805460ff191686151590811790915591519182527f17307eab39ab6107e8899845ad3d59bd9653f200f220920489ca2b5937696c31910160405180910390a3505050565b6001600160a01b0383163b1561135857604051630a85bd0160e11b81526001600160a01b0384169063150b7a0290611276908890889087908790600401611df2565b6020604051808303816000875af19250505080156112b1575060408051601f3d908101601f191682019092526112ae91810190611e2f565b60015b61131a573d8080156112df576040519150601f19603f3d011682016040523d82523d6000602084013e6112e4565b606091505b50805160000361131257604051633250574960e11b81526001600160a01b038516600482015260240161061e565b805181602001fd5b6001600160e01b03198116630a85bd0160e11b1461135657604051633250574960e11b81526001600160a01b038516600482015260240161061e565b505b5050505050565b6060600061136c83611574565b600101905060008167ffffffffffffffff81111561138c5761138c61194c565b6040519080825280601f01601f1916602001820160405280156113b6576020820181803683370190505b5090508181016020015b600019016f181899199a1a9b1b9c1cb0b131b232b360811b600a86061a8153600a85049450846113c057509392505050565b808061140657506001600160a01b03821615155b156114c857600061141684610fbd565b90506001600160a01b038316158015906114425750826001600160a01b0316816001600160a01b031614155b801561145557506114538184610f51565b155b1561147e5760405163a9fbf51f60e01b81526001600160a01b038416600482015260240161061e565b81156114c65783856001600160a01b0316826001600160a01b03167f8c5be1e5ebec7d5bd14f71427d1e84f3dd0314c0f7b2291e5b200ac8c7c3b92560405160405180910390a45b505b5050600090815260046020526040902080546001600160a01b0319166001600160a01b0392909216919091179055565b61150383838361164c565b61086f576001600160a01b03831661153157604051637e27328960e01b81526004810182905260240161061e565b60405163177e802f60e01b81526001600160a01b03831660048201526024810182905260440161061e565b61156683836116b2565b61086f336000858585611234565b60008072184f03e93ff9f4daa797ed6e38ed64bf6a1f0160401b83106115b35772184f03e93ff9f4daa797ed6e38ed64bf6a1f0160401b830492506040015b6d04ee2d6d415b85acef810000000083106115df576d04ee2d6d415b85acef8100000000830492506020015b662386f26fc1000083106115fd57662386f26fc10000830492506010015b6305f5e1008310611615576305f5e100830492506008015b612710831061162957612710830492506004015b6064831061163b576064830492506002015b600a83106105285760010192915050565b60006001600160a01b038316158015906116aa5750826001600160a01b0316846001600160a01b0316148061168657506116868484610f51565b806116aa57506000828152600460205260409020546001600160a01b038481169116145b949350505050565b6001600160a01b0382166116dc57604051633250574960e11b81526000600482015260240161061e565b60006116ea83836000611003565b90506001600160a01b0381161561086f576040516339e3563760e11b81526000600482015260240161061e565b6001600160e01b031981168114610fba57600080fd5b60006020828403121561173f57600080fd5b8135610f4a81611717565b60005b8381101561176557818101518382015260200161174d565b50506000910152565b6000815180845261178681602086016020860161174a565b601f01601f19169290920160200192915050565b602081526000610f4a602083018461176e565b6000602082840312156117bf57600080fd5b5035919050565b80356001600160a01b03811681146117dd57600080fd5b919050565b600080604083850312156117f557600080fd5b6117fe836117c6565b946020939093013593505050565b60008060006060848603121561182157600080fd5b61182a846117c6565b9250611838602085016117c6565b9150604084013590509250925092565b60c08152600061185b60c083018961176e565b8760208401528281036040840152611873818861176e565b90508281036060840152611887818761176e565b6080840195909552505060a00152949350505050565b600080604083850312156118b057600080fd5b823591506118c0602084016117c6565b90509250929050565b602081526000825160c060208401526118e560e084018261176e565b9050602084015160408401526040840151601f198085840301606086015261190d838361176e565b925060608601519150808584030160808601525061192b828261176e565b915050608084015160a084015260a084015160c08401528091505092915050565b634e487b7160e01b600052604160045260246000fd5b600067ffffffffffffffff8084111561197d5761197d61194c565b604051601f8501601f19908116603f011681019082821181831017156119a5576119a561194c565b816040528093508581528686860111156119be57600080fd5b858560208301376000602087830101525050509392505050565b600082601f8301126119e957600080fd5b610f4a83833560208501611962565b60008060008060008060c08789031215611a1157600080fd5b863567ffffffffffffffff80821115611a2957600080fd5b611a358a838b016119d8565b9750602089013596506040890135915080821115611a5257600080fd5b611a5e8a838b016119d8565b95506060890135915080821115611a7457600080fd5b50611a8189828a016119d8565b9350506080870135915060a087013590509295509295509295565b600060208284031215611aae57600080fd5b610f4a826117c6565b60008060408385031215611aca57600080fd5b611ad3836117c6565b915060208301358015158114611ae857600080fd5b809150509250929050565b60008060008060808587031215611b0957600080fd5b611b12856117c6565b9350611b20602086016117c6565b925060408501359150606085013567ffffffffffffffff811115611b4357600080fd5b8501601f81018713611b5457600080fd5b611b6387823560208401611962565b91505092959194509250565b60008060408385031215611b8257600080fd5b50508035926020909101359150565b60008060408385031215611ba457600080fd5b611bad836117c6565b91506118c0602084016117c6565b600181811c90821680611bcf57607f821691505b602082108103611bef57634e487b7160e01b600052602260045260246000fd5b50919050565b634e487b7160e01b600052601160045260246000fd5b600060018201611c1d57611c1d611bf5565b5060010190565b601f82111561086f57600081815260208120601f850160051c81016020861015611c4b5750805b601f850160051c820191505b8181101561135657828155600101611c57565b815167ffffffffffffffff811115611c8457611c8461194c565b611c9881611c928454611bbb565b84611c24565b602080601f831160018114611ccd5760008415611cb55750858301515b600019600386901b1c1916600185901b178555611356565b600085815260208120601f198616915b82811015611cfc57888601518255948401946001909101908401611cdd565b5085821015611d1a5787850151600019600388901b60f8161c191681555b5050505050600190811b01905550565b87815260e060208201526000611d4360e083018961176e565b8760408401528281036060840152611d5b818861176e565b90508281036080840152611d6f818761176e565b60a0840195909552505060c0015295945050505050565b808202811582820484141761052857610528611bf5565b8181038181111561052857610528611bf5565b8082018082111561052857610528611bf5565b60008351611dd581846020880161174a565b835190830190611de981836020880161174a565b01949350505050565b6001600160a01b0385811682528416602082015260408101839052608060608201819052600090611e259083018461176e565b9695505050505050565b600060208284031215611e4157600080fd5b8151610f4a8161171756fea2646970667358221220522529a55da3637f8da6c7f9a83a3a505ba7e8651ab70ef51818d3d5d8bf40ce64736f6c63430008140033",
  "linkReferences": {},
  "deployedLinkReferences": {}
}