{
  "_format": "hh-sol-artifact-1",
  "contractName": "MovieNFT",
  "sourceName": "contracts/MovieNft.sol",
  "abi": [
    {
      "inputs": [],
      "stateMutability": "nonpayable",
      "type": "constructor"
    },
    {
      "inputs": [
        {
          "internalType": "address",
          "name": "sender",
          "type": "address"
        },
        {
          "internalType": "uint256",
          "name": "tokenId",
          "type": "uint256"
        },
        {
          "internalType": "address",
          "name": "owner",
          "type": "address"
        }
      ],
      "name": "ERC721IncorrectOwner",
      "type": "error"
    },
    {
      "inputs": [
        {
          "internalType": "address",
          "name": "operator",
          "type": "address"
        },
        {
          "internalType": "uint256",
          "name": "tokenId",
          "type": "uint256"
        }
      ],
      "name": "ERC721InsufficientApproval",
      "type": "error"
    },
    {
      "inputs": [
        {
          "internalType": "address",
          "name": "approver",
          "type": "address"
        }
      ],
      "name": "ERC721InvalidApprover",
      "type": "error"
    },
    {
      "inputs": [
        {
          "internalType": "address",
          "name": "operator",
          "type": "address"
        }
      ],
      "name": "ERC721InvalidOperator",
      "type": "error"
    },
    {
      "inputs": [
        {
          "internalType": "address",
          "name": "owner",
          "type": "address"
        }
      ],
      "name": "ERC721InvalidOwner",
      "type": "error"
    },
    {
      "inputs": [
        {
          "internalType": "address",
          "name": "receiver",
          "type": "address"
        }
      ],
      "name": "ERC721InvalidReceiver",
      "type": "error"
    },
    {
      "inputs": [
        {
          "internalType": "address",
          "name": "sender",
          "type": "address"
        }
      ],
      "name": "ERC721InvalidSender",
      "type": "error"
    },
    {
      "inputs": [
        {
          "internalType": "uint256",
          "name": "tokenId",
          "type": "uint256"
        }
      ],
      "name": "ERC721NonexistentToken",
      "type": "error"
    },
    {
      "inputs": [
        {
          "internalType": "address",
          "name": "owner",
          "type": "address"
        }
      ],
      "name": "OwnableInvalidOwner",
      "type": "error"
    },
    {
      "inputs": [
        {
          "internalType": "address",
          "name": "account",
          "type": "address"
        }
      ],
      "name": "OwnableUnauthorizedAccount",
      "type": "error"
    },
    {
      "anonymous": false,
      "inputs": [
        {
          "indexed": true,
          "internalType": "address",
          "name": "owner",
          "type": "address"
        },
        {
          "indexed": true,
          "internalType": "address",
          "name": "approved",
          "type": "address"
        },
        {
          "indexed": true,
          "internalType": "uint256",
          "name": "tokenId",
          "type": "uint256"
        }
      ],
      "name": "Approval",
      "type": "event"
    },
    {
      "anonymous": false,
      "inputs": [
        {
          "indexed": true,
          "internalType": "address",
          "name": "owner",
          "type": "address"
        },
        {
          "indexed": true,
          "internalType": "address",
          "name": "operator",
          "type": "address"
        },
        {
          "indexed": false,
          "internalType": "bool",
          "name": "approved",
          "type": "bool"
        }
      ],
      "name": "ApprovalForAll",
      "type": "event"
    },
    {
      "anonymous": false,
      "inputs": [
        {
          "indexed": false,
          "internalType": "uint256",
          "name": "tokenId",
          "type": "uint256"
        },
        {
          "indexed": false,
          "internalType": "string",
          "name": "name",
          "type": "string"
        },
        {
          "indexed": false,
          "internalType": "uint256",
          "name": "releaseYear",
          "type": "uint256"
        },
        {
          "indexed": false,
          "internalType": "string",
          "name": "genre",
          "type": "string"
        },
        {
          "indexed": false,
          "internalType": "string",
          "name": "poster",
          "type": "string"
        },
        {
          "indexed": false,
          "internalType": "uint256",
          "name": "shares",
          "type": "uint256"
        },
        {
          "indexed": false,
          "internalType": "uint256",
          "name": "basePrice",
          "type": "uint256"
        }
      ],
      "name": "MovieMinted",
      "type": "event"
    },
    {
      "anonymous": false,
      "inputs": [
        {
          "indexed": true,
          "internalType": "address",
          "name": "previousOwner",
          "type": "address"
        },
        {
          "indexed": true,
          "internalType": "address",
          "name": "newOwner",
          "type": "address"
        }
      ],
      "name": "OwnershipTransferred",
      "type": "event"
    },
    {
      "anonymous": false,
      "inputs": [
        {
          "indexed": false,
          "internalType": "uint256",
          "name": "tokenId",
          "type": "uint256"
        },
        {
          "indexed": false,
          "internalType": "address",
          "name": "buyer",
          "type": "address"
        },
        {
          "indexed": false,
          "internalType": "uint256",
          "name": "amount",
          "type": "uint256"
        },
        {
          "indexed": false,
          "internalType": "uint256",
          "name": "price",
          "type": "uint256"
        }
      ],
      "name": "SharesBought",
      "type": "event"
    },
    {
      "anonymous": false,
      "inputs": [
        {
          "indexed": true,
          "internalType": "address",
          "name": "from",
          "type": "address"
        },
        {
          "indexed": true,
          "internalType": "address",
          "name": "to",
          "type": "address"
        },
        {
          "indexed": true,
          "internalType": "uint256",
          "name": "tokenId",
          "type": "uint256"
        }
      ],
      "name": "Transfer",
      "type": "event"
    },
    {
      "inputs": [
        {
          "internalType": "address",
          "name": "to",
          "type": "address"
        },
        {
          "internalType": "uint256",
          "name": "tokenId",
          "type": "uint256"
        }
      ],
      "name": "approve",
      "outputs": [],
      "stateMutability": "nonpayable",
      "type": "function"
    },
    {
      "inputs": [
        {
          "internalType": "address",
          "name": "owner",
          "type": "address"
        }
      ],
      "name": "balanceOf",
      "outputs": [
        {
          "internalType": "uint256",
          "name": "",
          "type": "uint256"
        }
      ],
      "stateMutability": "view",
      "type": "function"
    },
    {
      "inputs": [
        {
          "internalType": "uint256",
          "name": "tokenId",
          "type": "uint256"
        },
        {
          "internalType": "uint256",
          "name": "amount",
          "type": "uint256"
        }
      ],
      "name": "buyShares",
      "outputs": [],
      "stateMutability": "payable",
      "type": "function"
    },
    {
      "inputs": [
        {
          "internalType": "uint256",
          "name": "tokenId",
          "type": "uint256"
        }
      ],
      "name": "getApproved",
      "outputs": [
        {
          "internalType": "address",
          "name": "",
          "type": "address"
        }
      ],
      "stateMutability": "view",
      "type": "function"
    },
    {
      "inputs": [
        {
          "internalType": "uint256",
          "name": "tokenId",
          "type": "uint256"
        }
      ],
      "name": "getMovieDetails",
      "outputs": [
        {
          "components": [
            {
              "internalType": "string",
              "name": "name",
              "type": "string"
            },
            {
              "internalType": "uint256",
              "name": "releaseYear",
              "type": "uint256"
            },
            {
              "internalType": "string",
              "name": "genre",
              "type": "string"
            },
            {
              "internalType": "string",
              "name": "poster",
              "type": "string"
            },
            {
              "internalType": "uint256",
              "name": "shares",
              "type": "uint256"
            },
            {
              "internalType": "uint256",
              "name": "basePrice",
              "type": "uint256"
            }
          ],
          "internalType": "struct MovieNFT.Movie",
          "name": "",
          "type": "tuple"
        }
      ],
      "stateMutability": "view",
      "type": "function"
    },
    {
      "inputs": [
        {
          "internalType": "uint256",
          "name": "tokenId",
          "type": "uint256"
        }
      ],
      "name": "getMyShares",
      "outputs": [
        {
          "internalType": "uint256",
          "name": "",
          "type": "uint256"
        }
      ],
      "stateMutability": "view",
      "type": "function"
    },
    {
      "inputs": [
        {
          "internalType": "address",
          "name": "owner",
          "type": "address"
        },
        {
          "internalType": "address",
          "name": "operator",
          "type": "address"
        }
      ],
      "name": "isApprovedForAll",
      "outputs": [
        {
          "internalType": "bool",
          "name": "",
          "type": "bool"
        }
      ],
      "stateMutability": "view",
      "type": "function"
    },
    {
      "inputs": [
        {
          "internalType": "string",
          "name": "movieName",
          "type": "string"
        },
        {
          "internalType": "uint256",
          "name": "releaseYear",
          "type": "uint256"
        },
        {
          "internalType": "string",
          "name": "genre",
          "type": "string"
        },
        {
          "internalType": "string",
          "name": "poster",
          "type": "string"
        },
        {
          "internalType": "uint256",
          "name": "shares",
          "type": "uint256"
        },
        {
          "internalType": "uint256",
          "name": "basePrice",
          "type": "uint256"
        }
      ],
      "name": "mintNFT",
      "outputs": [],
      "stateMutability": "nonpayable",
      "type": "function"
    },
    {
      "inputs": [
        {
          "internalType": "uint256",
          "name": "",
          "type": "uint256"
        }
      ],
      "name": "movieOwners",
      "outputs": [
        {
          "internalType": "address",
          "name": "",
          "type": "address"
        }
      ],
      "stateMutability": "view",
      "type": "function"
    },
    {
      "inputs": [
        {
          "internalType": "uint256",
          "name": "",
          "type": "uint256"
        },
        {
          "internalType": "address",
          "name": "",
          "type": "address"
        }
      ],
      "name": "movieShares",
      "outputs": [
        {
          "internalType": "uint256",
          "name": "",
          "type": "uint256"
        }
      ],
      "stateMutability": "view",
      "type": "function"
    },
    {
      "inputs": [
        {
          "internalType": "uint256",
          "name": "",
          "type": "uint256"
        }
      ],
      "name": "movies",
      "outputs": [
        {
          "internalType": "string",
          "name": "name",
          "type": "string"
        },
        {
          "internalType": "uint256",
          "name": "releaseYear",
          "type": "uint256"
        },
        {
          "internalType": "string",
          "name": "genre",
          "type": "string"
        },
        {
          "internalType": "string",
          "name": "poster",
          "type": "string"
        },
        {
          "internalType": "uint256",
          "name": "shares",
          "type": "uint256"
        },
        {
          "internalType": "uint256",
          "name": "basePrice",
          "type": "uint256"
        }
      ],
      "stateMutability": "view",
      "type": "function"
    },
    {
      "inputs": [],
      "name": "name",
      "outputs": [
        {
          "internalType": "string",
          "name": "",
          "type": "string"
        }
      ],
      "stateMutability": "view",
      "type": "function"
    },
    {
      "inputs": [],
      "name": "owner",
      "outputs": [
        {
          "internalType": "address",
          "name": "",
          "type": "address"
        }
      ],
      "stateMutability": "view",
      "type": "function"
    },
    {
      "inputs": [
        {
          "internalType": "uint256",
          "name": "tokenId",
          "type": "uint256"
        }
      ],
      "name": "ownerOf",
      "outputs": [
        {
          "internalType": "address",
          "name": "",
          "type": "address"
        }
      ],
      "stateMutability": "view",
      "type": "function"
    },
    {
      "inputs": [],
      "name": "renounceOwnership",
      "outputs": [],
      "stateMutability": "nonpayable",
      "type": "function"
    },
    {
      "inputs": [
        {
          "internalType": "address",
          "name": "from",
          "type": "address"
        },
        {
          "internalType": "address",
          "name": "to",
          "type": "address"
        },
        {
          "internalType": "uint256",
          "name": "tokenId",
          "type": "uint256"
        }
      ],
      "name": "safeTransferFrom",
      "outputs": [],
      "stateMutability": "nonpayable",
      "type": "function"
    },
    {
      "inputs": [
        {
          "internalType": "address",
          "name": "from",
          "type": "address"
        },
        {
          "internalType": "address",
          "name": "to",
          "type": "address"
        },
        {
          "internalType": "uint256",
          "name": "tokenId",
          "type": "uint256"
        },
        {
          "internalType": "bytes",
          "name": "data",
          "type": "bytes"
        }
      ],
      "name": "safeTransferFrom",
      "outputs": [],
      "stateMutability": "nonpayable",
      "type": "function"
    },
    {
      "inputs": [
        {
          "internalType": "address",
          "name": "operator",
          "type": "address"
        },
        {
          "internalType": "bool",
          "name": "approved",
          "type": "bool"
        }
      ],
      "name": "setApprovalForAll",
      "outputs": [],
      "stateMutability": "nonpayable",
      "type": "function"
    },
    {
      "inputs": [
        {
          "internalType": "uint256",
          "name": "tokenId",
          "type": "uint256"
        },
        {
          "internalType": "string",
          "name": "movieName",
          "type": "string"
        }
      ],
      "name": "setMovie",
      "outputs": [],
      "stateMutability": "nonpayable",
      "type": "function"
    },
    {
      "inputs": [
        {
          "internalType": "bytes4",
          "name": "interfaceId",
          "type": "bytes4"
        }
      ],
      "name": "supportsInterface",
      "outputs": [
        {
          "internalType": "bool",
          "name": "",
          "type": "bool"
        }
      ],
      "stateMutability": "view",
      "type": "function"
    },
    {
      "inputs": [],
      "name": "symbol",
      "outputs": [
        {
          "internalType": "string",
          "name": "",
          "type": "string"
        }
      ],
      "stateMutability": "view",
      "type": "function"
    },
    {
      "inputs": [
        {
          "internalType": "uint256",
          "name": "",
          "type": "uint256"
        }
      ],
      "name": "tokenIdToMovie",
      "outputs": [
        {
          "internalType": "string",
          "name": "",
          "type": "string"
        }
      ],
      "stateMutability": "view",
      "type": "function"
    },
    {
      "inputs": [
        {
          "internalType": "uint256",
          "name": "tokenId",
          "type": "uint256"
        }
      ],
      "name": "tokenURI",
      "outputs": [
        {
          "internalType": "string",
          "name": "",
          "type": "string"
        }
      ],
      "stateMutability": "view",
      "type": "function"
    },
    {
      "inputs": [
        {
          "internalType": "uint256",
          "name": "",
          "type": "uint256"
        }
      ],
      "name": "totalSharesSold",
      "outputs": [
        {
          "internalType": "uint256",
          "name": "",
          "type": "uint256"
        }
      ],
      "stateMutability": "view",
      "type": "function"
    },
    {
      "inputs": [
        {
          "internalType": "address",
          "name": "from",
          "type": "address"
        },
        {
          "internalType": "address",
          "name": "to",
          "type": "address"
        },
        {
          "internalType": "uint256",
          "name": "tokenId",
          "type": "uint256"
        }
      ],
      "name": "transferFrom",
      "outputs": [],
      "stateMutability": "nonpayable",
      "type": "function"
    },
    {
      "inputs": [
        {
          "internalType": "address",
          "name": "newOwner",
          "type": "address"
        }
      ],
      "name": "transferOwnership",
      "outputs": [],
      "stateMutability": "nonpayable",
      "type": "function"
    }
  ],
  "bytecode": "0x608060405260006007553480156200001657600080fd5b503360405180604001604052806008815260200167135bdd9a5953919560c21b815250604051806040016040528060048152602001631353919560e21b8152508160009081620000679190620001b1565b506001620000768282620001b1565b5050506001600160a01b038116620000a857604051631e4fbdf760e01b81526000600482015260240160405180910390fd5b620000b381620000ba565b506200027d565b600680546001600160a01b038381166001600160a01b0319831681179093556040519116919082907f8be0079c531659141344cd1fd0a4f28419497f9722a3daafe3b4186f6b6457e090600090a35050565b634e487b7160e01b600052604160045260246000fd5b600181811c908216806200013757607f821691505b6020821081036200015857634e487b7160e01b600052602260045260246000fd5b50919050565b601f821115620001ac57600081815260208120601f850160051c81016020861015620001875750805b601f850160051c820191505b81811015620001a85782815560010162000193565b5050505b505050565b81516001600160401b03811115620001cd57620001cd6200010c565b620001e581620001de845462000122565b846200015e565b602080601f8311600181146200021d5760008415620002045750858301515b600019600386901b1c1916600185901b178555620001a8565b600085815260208120601f198616915b828110156200024e578886015182559484019460019091019084016200022d565b50858210156200026d5787850151600019600388901b60f8161c191681555b5050505050600190811b01905550565b612070806200028d6000396000f3fe6080604052600436106101815760003560e01c8063715018a6116100d1578063beebc5da1161008a578063dd7d7b9611610064578063dd7d7b96146104ba578063e985e9c5146104da578063f2fde38b146104fa578063fe106e211461051a57600080fd5b8063beebc5da14610451578063c87b56dd14610464578063d9954d701461048457600080fd5b8063715018a61461039c5780638da5cb5b146103b157806395d89b41146103cf578063a22cb465146103e4578063b88d4fde14610404578063bb7056a51461042457600080fd5b806342842e0e1161013e5780635c7b14c1116101185780635c7b14c11461030f5780636352211e1461033c5780636ad3fd3f1461035c57806370a082311461037c57600080fd5b806342842e0e14610289578063463a1aa5146102a95780634d967d5c146102ef57600080fd5b806301ffc9a71461018657806306fdde03146101bb578063081812fc146101dd578063095ea7b31461021557806323b872dd14610237578063404ebf6c14610257575b600080fd5b34801561019257600080fd5b506101a66101a13660046118d4565b610552565b60405190151581526020015b60405180910390f35b3480156101c757600080fd5b506101d06105a4565b6040516101b29190611941565b3480156101e957600080fd5b506101fd6101f8366004611954565b610636565b6040516001600160a01b0390911681526020016101b2565b34801561022157600080fd5b50610235610230366004611989565b61065f565b005b34801561024357600080fd5b506102356102523660046119b3565b61066e565b34801561026357600080fd5b50610277610272366004611954565b6106fe565b6040516101b2969594939291906119ef565b34801561029557600080fd5b506102356102a43660046119b3565b6108ca565b3480156102b557600080fd5b506102e16102c4366004611a44565b600960209081526000928352604080842090915290825290205481565b6040519081526020016101b2565b3480156102fb57600080fd5b506101d061030a366004611954565b6108ea565b34801561031b57600080fd5b5061032f61032a366004611954565b610984565b6040516101b29190611a70565b34801561034857600080fd5b506101fd610357366004611954565b610bb0565b34801561036857600080fd5b50610235610377366004611b9f565b610bbb565b34801561038857600080fd5b506102e1610397366004611c43565b610da8565b3480156103a857600080fd5b50610235610df0565b3480156103bd57600080fd5b506006546001600160a01b03166101fd565b3480156103db57600080fd5b506101d0610e04565b3480156103f057600080fd5b506102356103ff366004611c5e565b610e13565b34801561041057600080fd5b5061023561041f366004611c9a565b610e1e565b34801561043057600080fd5b506102e161043f366004611954565b600a6020526000908152604090205481565b61023561045f366004611d16565b610e36565b34801561047057600080fd5b506101d061047f366004611954565b610ff4565b34801561049057600080fd5b506101fd61049f366004611954565b600b602052600090815260409020546001600160a01b031681565b3480156104c657600080fd5b506102356104d5366004611d38565b611069565b3480156104e657600080fd5b506101a66104f5366004611d7f565b6110f8565b34801561050657600080fd5b50610235610515366004611c43565b611126565b34801561052657600080fd5b506102e1610535366004611954565b600090815260096020908152604080832033845290915290205490565b60006001600160e01b031982166380ac58cd60e01b148061058357506001600160e01b03198216635b5e139f60e01b145b8061059e57506301ffc9a760e01b6001600160e01b03198316145b92915050565b6060600080546105b390611da9565b80601f01602080910402602001604051908101604052809291908181526020018280546105df90611da9565b801561062c5780601f106106015761010080835404028352916020019161062c565b820191906000526020600020905b81548152906001019060200180831161060f57829003601f168201915b5050505050905090565b600061064182611164565b506000828152600460205260409020546001600160a01b031661059e565b61066a82823361119d565b5050565b6001600160a01b03821661069d57604051633250574960e11b8152600060048201526024015b60405180910390fd5b60006106aa8383336111aa565b9050836001600160a01b0316816001600160a01b0316146106f8576040516364283d7b60e01b81526001600160a01b0380861660048301526024820184905282166044820152606401610694565b50505050565b60086020526000908152604090208054819061071990611da9565b80601f016020809104026020016040519081016040528092919081815260200182805461074590611da9565b80156107925780601f1061076757610100808354040283529160200191610792565b820191906000526020600020905b81548152906001019060200180831161077557829003601f168201915b5050505050908060010154908060020180546107ad90611da9565b80601f01602080910402602001604051908101604052809291908181526020018280546107d990611da9565b80156108265780601f106107fb57610100808354040283529160200191610826565b820191906000526020600020905b81548152906001019060200180831161080957829003601f168201915b50505050509080600301805461083b90611da9565b80601f016020809104026020016040519081016040528092919081815260200182805461086790611da9565b80156108b45780601f10610889576101008083540402835291602001916108b4565b820191906000526020600020905b81548152906001019060200180831161089757829003601f168201915b5050505050908060040154908060050154905086565b6108e583838360405180602001604052806000815250610e1e565b505050565b600c602052600090815260409020805461090390611da9565b80601f016020809104026020016040519081016040528092919081815260200182805461092f90611da9565b801561097c5780601f106109515761010080835404028352916020019161097c565b820191906000526020600020905b81548152906001019060200180831161095f57829003601f168201915b505050505081565b6109bd6040518060c001604052806060815260200160008152602001606081526020016060815260200160008152602001600081525090565b60008281526008602052604090819020815160c081019092528054829082906109e590611da9565b80601f0160208091040260200160405190810160405280929190818152602001828054610a1190611da9565b8015610a5e5780601f10610a3357610100808354040283529160200191610a5e565b820191906000526020600020905b815481529060010190602001808311610a4157829003601f168201915b5050505050815260200160018201548152602001600282018054610a8190611da9565b80601f0160208091040260200160405190810160405280929190818152602001828054610aad90611da9565b8015610afa5780601f10610acf57610100808354040283529160200191610afa565b820191906000526020600020905b815481529060010190602001808311610add57829003601f168201915b50505050508152602001600382018054610b1390611da9565b80601f0160208091040260200160405190810160405280929190818152602001828054610b3f90611da9565b8015610b8c5780601f10610b6157610100808354040283529160200191610b8c565b820191906000526020600020905b815481529060010190602001808311610b6f57829003601f168201915b50505050508152602001600482015481526020016005820154815250509050919050565b600061059e82611164565b610bc36112a3565b60008211610c275760405162461bcd60e51b815260206004820152602b60248201527f4e756d626572206f6620736861726573206d757374206265206772656174657260448201526a103a3430b7103d32b9379760a91b6064820152608401610694565b60008111610c855760405162461bcd60e51b815260206004820152602560248201527f42617365207072696365206d7573742062652067726561746572207468616e206044820152643d32b9379760d91b6064820152608401610694565b600780549081906000610c9783611df9565b90915550506040805160c0810182528881526020808201899052818301889052606082018790526080820186905260a08201859052600084815260089091529190912081518190610ce89082611e58565b506020820151600182015560408201516002820190610d079082611e58565b5060608201516003820190610d1c9082611e58565b506080820151600482015560a090910151600590910155610d3d33826112d0565b6000818152600b60205260409081902080546001600160a01b03191633179055517fc283cf582cd7904e4743501729a72efd9f2c327b3ec72c02b81ed6a772ea0fae90610d979083908a908a908a908a908a908a90611f18565b60405180910390a150505050505050565b60006001600160a01b038216610dd4576040516322718ad960e21b815260006004820152602401610694565b506001600160a01b031660009081526003602052604090205490565b610df86112a3565b610e0260006112ea565b565b6060600180546105b390611da9565b61066a33838361133c565b610e2984848461066e565b6106f833858585856113db565b60008281526008602052604090206004810154821115610e985760405162461bcd60e51b815260206004820152601c60248201527f4e6f7420656e6f7567682073686172657320617661696c61626c652e000000006044820152606401610694565b6000816005015483610eaa9190611f74565b9050803414610ef35760405162461bcd60e51b815260206004820152601560248201527424b731b7b93932b1ba1022ba3432b91039b2b73a1760591b6044820152606401610694565b82826004016000828254610f079190611f8b565b9091555050600084815260096020908152604080832033845290915281208054859290610f35908490611f9e565b90915550506000848152600a602052604081208054859290610f58908490611f9e565b90915550506000848152600b60205260408082205490516001600160a01b03909116913480156108fc02929091818181858888f19350505050158015610fa2573d6000803e3d6000fd5b506005820154604080518681523360208201528082018690526060810192909252517f0831583cced7554a81e1cd091e811afaadc7d575a17fbd354716145bb597efc99181900360800190a150505050565b6060610fff82611164565b50600061101760408051602081019091526000815290565b905060008151116110375760405180602001604052806000815250611062565b8061104184611506565b604051602001611052929190611fb1565b6040516020818303038152906040525b9392505050565b6110716112a3565b3361107b83610bb0565b6001600160a01b0316146110e05760405162461bcd60e51b815260206004820152602660248201527f4f6e6c792074686520746f6b656e206f776e65722063616e2073657420746865604482015265206d6f76696560d01b6064820152608401610694565b60008281526008602052604090206108e58282611e58565b6001600160a01b03918216600090815260056020908152604080832093909416825291909152205460ff1690565b61112e6112a3565b6001600160a01b03811661115857604051631e4fbdf760e01b815260006004820152602401610694565b611161816112ea565b50565b6000818152600260205260408120546001600160a01b03168061059e57604051637e27328960e01b815260048101849052602401610694565b6108e58383836001611599565b6000828152600260205260408120546001600160a01b03908116908316156111d7576111d781848661169f565b6001600160a01b03811615611215576111f4600085600080611599565b6001600160a01b038116600090815260036020526040902080546000190190555b6001600160a01b03851615611244576001600160a01b0385166000908152600360205260409020805460010190555b60008481526002602052604080822080546001600160a01b0319166001600160a01b0389811691821790925591518793918516917fddf252ad1be2c89b69c2b068fc378daa952ba7f163c4a11628f55a4df523b3ef91a4949350505050565b6006546001600160a01b03163314610e025760405163118cdaa760e01b8152336004820152602401610694565b61066a828260405180602001604052806000815250611703565b600680546001600160a01b038381166001600160a01b0319831681179093556040519116919082907f8be0079c531659141344cd1fd0a4f28419497f9722a3daafe3b4186f6b6457e090600090a35050565b6001600160a01b03821661136e57604051630b61174360e31b81526001600160a01b0383166004820152602401610694565b6001600160a01b03838116600081815260056020908152604080832094871680845294825291829020805460ff191686151590811790915591519182527f17307eab39ab6107e8899845ad3d59bd9653f200f220920489ca2b5937696c31910160405180910390a3505050565b6001600160a01b0383163b156114ff57604051630a85bd0160e11b81526001600160a01b0384169063150b7a029061141d908890889087908790600401611fe0565b6020604051808303816000875af1925050508015611458575060408051601f3d908101601f191682019092526114559181019061201d565b60015b6114c1573d808015611486576040519150601f19603f3d011682016040523d82523d6000602084013e61148b565b606091505b5080516000036114b957604051633250574960e11b81526001600160a01b0385166004820152602401610694565b805181602001fd5b6001600160e01b03198116630a85bd0160e11b146114fd57604051633250574960e11b81526001600160a01b0385166004820152602401610694565b505b5050505050565b606060006115138361171b565b600101905060008167ffffffffffffffff81111561153357611533611af3565b6040519080825280601f01601f19166020018201604052801561155d576020820181803683370190505b5090508181016020015b600019016f181899199a1a9b1b9c1cb0b131b232b360811b600a86061a8153600a850494508461156757509392505050565b80806115ad57506001600160a01b03821615155b1561166f5760006115bd84611164565b90506001600160a01b038316158015906115e95750826001600160a01b0316816001600160a01b031614155b80156115fc57506115fa81846110f8565b155b156116255760405163a9fbf51f60e01b81526001600160a01b0384166004820152602401610694565b811561166d5783856001600160a01b0316826001600160a01b03167f8c5be1e5ebec7d5bd14f71427d1e84f3dd0314c0f7b2291e5b200ac8c7c3b92560405160405180910390a45b505b5050600090815260046020526040902080546001600160a01b0319166001600160a01b0392909216919091179055565b6116aa8383836117f3565b6108e5576001600160a01b0383166116d857604051637e27328960e01b815260048101829052602401610694565b60405163177e802f60e01b81526001600160a01b038316600482015260248101829052604401610694565b61170d8383611859565b6108e53360008585856113db565b60008072184f03e93ff9f4daa797ed6e38ed64bf6a1f0160401b831061175a5772184f03e93ff9f4daa797ed6e38ed64bf6a1f0160401b830492506040015b6d04ee2d6d415b85acef81000000008310611786576d04ee2d6d415b85acef8100000000830492506020015b662386f26fc1000083106117a457662386f26fc10000830492506010015b6305f5e10083106117bc576305f5e100830492506008015b61271083106117d057612710830492506004015b606483106117e2576064830492506002015b600a831061059e5760010192915050565b60006001600160a01b038316158015906118515750826001600160a01b0316846001600160a01b0316148061182d575061182d84846110f8565b8061185157506000828152600460205260409020546001600160a01b038481169116145b949350505050565b6001600160a01b03821661188357604051633250574960e11b815260006004820152602401610694565b6000611891838360006111aa565b90506001600160a01b038116156108e5576040516339e3563760e11b815260006004820152602401610694565b6001600160e01b03198116811461116157600080fd5b6000602082840312156118e657600080fd5b8135611062816118be565b60005b8381101561190c5781810151838201526020016118f4565b50506000910152565b6000815180845261192d8160208601602086016118f1565b601f01601f19169290920160200192915050565b6020815260006110626020830184611915565b60006020828403121561196657600080fd5b5035919050565b80356001600160a01b038116811461198457600080fd5b919050565b6000806040838503121561199c57600080fd5b6119a58361196d565b946020939093013593505050565b6000806000606084860312156119c857600080fd5b6119d18461196d565b92506119df6020850161196d565b9150604084013590509250925092565b60c081526000611a0260c0830189611915565b8760208401528281036040840152611a1a8188611915565b90508281036060840152611a2e8187611915565b6080840195909552505060a00152949350505050565b60008060408385031215611a5757600080fd5b82359150611a676020840161196d565b90509250929050565b602081526000825160c06020840152611a8c60e0840182611915565b9050602084015160408401526040840151601f1980858403016060860152611ab48383611915565b9250606086015191508085840301608086015250611ad28282611915565b915050608084015160a084015260a084015160c08401528091505092915050565b634e487b7160e01b600052604160045260246000fd5b600067ffffffffffffffff80841115611b2457611b24611af3565b604051601f8501601f19908116603f01168101908282118183101715611b4c57611b4c611af3565b81604052809350858152868686011115611b6557600080fd5b858560208301376000602087830101525050509392505050565b600082601f830112611b9057600080fd5b61106283833560208501611b09565b60008060008060008060c08789031215611bb857600080fd5b863567ffffffffffffffff80821115611bd057600080fd5b611bdc8a838b01611b7f565b9750602089013596506040890135915080821115611bf957600080fd5b611c058a838b01611b7f565b95506060890135915080821115611c1b57600080fd5b50611c2889828a01611b7f565b9350506080870135915060a087013590509295509295509295565b600060208284031215611c5557600080fd5b6110628261196d565b60008060408385031215611c7157600080fd5b611c7a8361196d565b915060208301358015158114611c8f57600080fd5b809150509250929050565b60008060008060808587031215611cb057600080fd5b611cb98561196d565b9350611cc76020860161196d565b925060408501359150606085013567ffffffffffffffff811115611cea57600080fd5b8501601f81018713611cfb57600080fd5b611d0a87823560208401611b09565b91505092959194509250565b60008060408385031215611d2957600080fd5b50508035926020909101359150565b60008060408385031215611d4b57600080fd5b82359150602083013567ffffffffffffffff811115611d6957600080fd5b611d7585828601611b7f565b9150509250929050565b60008060408385031215611d9257600080fd5b611d9b8361196d565b9150611a676020840161196d565b600181811c90821680611dbd57607f821691505b602082108103611ddd57634e487b7160e01b600052602260045260246000fd5b50919050565b634e487b7160e01b600052601160045260246000fd5b600060018201611e0b57611e0b611de3565b5060010190565b601f8211156108e557600081815260208120601f850160051c81016020861015611e395750805b601f850160051c820191505b818110156114fd57828155600101611e45565b815167ffffffffffffffff811115611e7257611e72611af3565b611e8681611e808454611da9565b84611e12565b602080601f831160018114611ebb5760008415611ea35750858301515b600019600386901b1c1916600185901b1785556114fd565b600085815260208120601f198616915b82811015611eea57888601518255948401946001909101908401611ecb565b5085821015611f085787850151600019600388901b60f8161c191681555b5050505050600190811b01905550565b87815260e060208201526000611f3160e0830189611915565b8760408401528281036060840152611f498188611915565b90508281036080840152611f5d8187611915565b60a0840195909552505060c0015295945050505050565b808202811582820484141761059e5761059e611de3565b8181038181111561059e5761059e611de3565b8082018082111561059e5761059e611de3565b60008351611fc38184602088016118f1565b835190830190611fd78183602088016118f1565b01949350505050565b6001600160a01b038581168252841660208201526040810183905260806060820181905260009061201390830184611915565b9695505050505050565b60006020828403121561202f57600080fd5b8151611062816118be56fea26469706673582212203a543c4b53be4e7204254a301a327fdf1e270e51e882f7ff136713a6e606bb5164736f6c63430008140033",
  "linkReferences": {},
  "deployedLinkReferences": {}
}