{
  "address": "0xe7f1725E7734CE288F8367e1Bb143E90bb3F0512",
  "_format": "hh-sol-artifact-1",
  "contractName": "MovieNFT",
  "sourceName": "contracts/MovieNft.sol",
  "abi": [
    {
      "inputs": [
        {
          "internalType": "string",
          "name": "name",
          "type": "string"
        },
        {
          "internalType": "string",
          "name": "symbol",
          "type": "string"
        },
        {
          "internalType": "uint256",
          "name": "_basePrice",
          "type": "uint256"
        }
      ],
      "stateMutability": "nonpayable",
      "type": "constructor"
    },
    {
      "inputs": [
        {
          "internalType": "address",
          "name": "sender",
          "type": "address"
        },
        {
          "internalType": "uint256",
          "name": "tokenId",
          "type": "uint256"
        },
        {
          "internalType": "address",
          "name": "owner",
          "type": "address"
        }
      ],
      "name": "ERC721IncorrectOwner",
      "type": "error"
    },
    {
      "inputs": [
        {
          "internalType": "address",
          "name": "operator",
          "type": "address"
        },
        {
          "internalType": "uint256",
          "name": "tokenId",
          "type": "uint256"
        }
      ],
      "name": "ERC721InsufficientApproval",
      "type": "error"
    },
    {
      "inputs": [
        {
          "internalType": "address",
          "name": "approver",
          "type": "address"
        }
      ],
      "name": "ERC721InvalidApprover",
      "type": "error"
    },
    {
      "inputs": [
        {
          "internalType": "address",
          "name": "operator",
          "type": "address"
        }
      ],
      "name": "ERC721InvalidOperator",
      "type": "error"
    },
    {
      "inputs": [
        {
          "internalType": "address",
          "name": "owner",
          "type": "address"
        }
      ],
      "name": "ERC721InvalidOwner",
      "type": "error"
    },
    {
      "inputs": [
        {
          "internalType": "address",
          "name": "receiver",
          "type": "address"
        }
      ],
      "name": "ERC721InvalidReceiver",
      "type": "error"
    },
    {
      "inputs": [
        {
          "internalType": "address",
          "name": "sender",
          "type": "address"
        }
      ],
      "name": "ERC721InvalidSender",
      "type": "error"
    },
    {
      "inputs": [
        {
          "internalType": "uint256",
          "name": "tokenId",
          "type": "uint256"
        }
      ],
      "name": "ERC721NonexistentToken",
      "type": "error"
    },
    {
      "inputs": [
        {
          "internalType": "address",
          "name": "owner",
          "type": "address"
        }
      ],
      "name": "OwnableInvalidOwner",
      "type": "error"
    },
    {
      "inputs": [
        {
          "internalType": "address",
          "name": "account",
          "type": "address"
        }
      ],
      "name": "OwnableUnauthorizedAccount",
      "type": "error"
    },
    {
      "anonymous": false,
      "inputs": [
        {
          "indexed": true,
          "internalType": "address",
          "name": "owner",
          "type": "address"
        },
        {
          "indexed": true,
          "internalType": "address",
          "name": "approved",
          "type": "address"
        },
        {
          "indexed": true,
          "internalType": "uint256",
          "name": "tokenId",
          "type": "uint256"
        }
      ],
      "name": "Approval",
      "type": "event"
    },
    {
      "anonymous": false,
      "inputs": [
        {
          "indexed": true,
          "internalType": "address",
          "name": "owner",
          "type": "address"
        },
        {
          "indexed": true,
          "internalType": "address",
          "name": "operator",
          "type": "address"
        },
        {
          "indexed": false,
          "internalType": "bool",
          "name": "approved",
          "type": "bool"
        }
      ],
      "name": "ApprovalForAll",
      "type": "event"
    },
    {
      "anonymous": false,
      "inputs": [
        {
          "indexed": true,
          "internalType": "address",
          "name": "previousOwner",
          "type": "address"
        },
        {
          "indexed": true,
          "internalType": "address",
          "name": "newOwner",
          "type": "address"
        }
      ],
      "name": "OwnershipTransferred",
      "type": "event"
    },
    {
      "anonymous": false,
      "inputs": [
        {
          "indexed": true,
          "internalType": "address",
          "name": "investor",
          "type": "address"
        },
        {
          "indexed": false,
          "internalType": "uint256",
          "name": "amount",
          "type": "uint256"
        }
      ],
      "name": "SharesPurchased",
      "type": "event"
    },
    {
      "anonymous": false,
      "inputs": [
        {
          "indexed": true,
          "internalType": "address",
          "name": "from",
          "type": "address"
        },
        {
          "indexed": true,
          "internalType": "address",
          "name": "to",
          "type": "address"
        },
        {
          "indexed": true,
          "internalType": "uint256",
          "name": "tokenId",
          "type": "uint256"
        }
      ],
      "name": "Transfer",
      "type": "event"
    },
    {
      "inputs": [
        {
          "internalType": "address",
          "name": "to",
          "type": "address"
        },
        {
          "internalType": "uint256",
          "name": "tokenId",
          "type": "uint256"
        }
      ],
      "name": "approve",
      "outputs": [],
      "stateMutability": "nonpayable",
      "type": "function"
    },
    {
      "inputs": [
        {
          "internalType": "address",
          "name": "owner",
          "type": "address"
        }
      ],
      "name": "balanceOf",
      "outputs": [
        {
          "internalType": "uint256",
          "name": "",
          "type": "uint256"
        }
      ],
      "stateMutability": "view",
      "type": "function"
    },
    {
      "inputs": [],
      "name": "basePrice",
      "outputs": [
        {
          "internalType": "uint256",
          "name": "",
          "type": "uint256"
        }
      ],
      "stateMutability": "view",
      "type": "function"
    },
    {
      "inputs": [
        {
          "internalType": "uint256",
          "name": "amount",
          "type": "uint256"
        }
      ],
      "name": "buyShares",
      "outputs": [],
      "stateMutability": "payable",
      "type": "function"
    },
    {
      "inputs": [
        {
          "internalType": "uint256",
          "name": "totalEarnings",
          "type": "uint256"
        }
      ],
      "name": "distributeEarnings",
      "outputs": [],
      "stateMutability": "nonpayable",
      "type": "function"
    },
    {
      "inputs": [
        {
          "internalType": "uint256",
          "name": "tokenId",
          "type": "uint256"
        }
      ],
      "name": "getApproved",
      "outputs": [
        {
          "internalType": "address",
          "name": "",
          "type": "address"
        }
      ],
      "stateMutability": "view",
      "type": "function"
    },
    {
      "inputs": [
        {
          "internalType": "uint256",
          "name": "",
          "type": "uint256"
        }
      ],
      "name": "investorList",
      "outputs": [
        {
          "internalType": "address",
          "name": "",
          "type": "address"
        }
      ],
      "stateMutability": "view",
      "type": "function"
    },
    {
      "inputs": [
        {
          "internalType": "address",
          "name": "",
          "type": "address"
        }
      ],
      "name": "investors",
      "outputs": [
        {
          "internalType": "bool",
          "name": "",
          "type": "bool"
        }
      ],
      "stateMutability": "view",
      "type": "function"
    },
    {
      "inputs": [
        {
          "internalType": "address",
          "name": "owner",
          "type": "address"
        },
        {
          "internalType": "address",
          "name": "operator",
          "type": "address"
        }
      ],
      "name": "isApprovedForAll",
      "outputs": [
        {
          "internalType": "bool",
          "name": "",
          "type": "bool"
        }
      ],
      "stateMutability": "view",
      "type": "function"
    },
    {
      "inputs": [
        {
          "internalType": "string",
          "name": "tokenName",
          "type": "string"
        },
        {
          "internalType": "string",
          "name": "tokenSymbol",
          "type": "string"
        }
      ],
      "name": "mintNFT",
      "outputs": [],
      "stateMutability": "nonpayable",
      "type": "function"
    },
    {
      "inputs": [],
      "name": "name",
      "outputs": [
        {
          "internalType": "string",
          "name": "",
          "type": "string"
        }
      ],
      "stateMutability": "view",
      "type": "function"
    },
    {
      "inputs": [],
      "name": "nftCounter",
      "outputs": [
        {
          "internalType": "uint256",
          "name": "",
          "type": "uint256"
        }
      ],
      "stateMutability": "view",
      "type": "function"
    },
    {
      "inputs": [],
      "name": "owner",
      "outputs": [
        {
          "internalType": "address",
          "name": "",
          "type": "address"
        }
      ],
      "stateMutability": "view",
      "type": "function"
    },
    {
      "inputs": [
        {
          "internalType": "uint256",
          "name": "tokenId",
          "type": "uint256"
        }
      ],
      "name": "ownerOf",
      "outputs": [
        {
          "internalType": "address",
          "name": "",
          "type": "address"
        }
      ],
      "stateMutability": "view",
      "type": "function"
    },
    {
      "inputs": [],
      "name": "ownershipToken",
      "outputs": [
        {
          "internalType": "contract ERC20",
          "name": "",
          "type": "address"
        }
      ],
      "stateMutability": "view",
      "type": "function"
    },
    {
      "inputs": [],
      "name": "renounceOwnership",
      "outputs": [],
      "stateMutability": "nonpayable",
      "type": "function"
    },
    {
      "inputs": [
        {
          "internalType": "address",
          "name": "from",
          "type": "address"
        },
        {
          "internalType": "address",
          "name": "to",
          "type": "address"
        },
        {
          "internalType": "uint256",
          "name": "tokenId",
          "type": "uint256"
        }
      ],
      "name": "safeTransferFrom",
      "outputs": [],
      "stateMutability": "nonpayable",
      "type": "function"
    },
    {
      "inputs": [
        {
          "internalType": "address",
          "name": "from",
          "type": "address"
        },
        {
          "internalType": "address",
          "name": "to",
          "type": "address"
        },
        {
          "internalType": "uint256",
          "name": "tokenId",
          "type": "uint256"
        },
        {
          "internalType": "bytes",
          "name": "data",
          "type": "bytes"
        }
      ],
      "name": "safeTransferFrom",
      "outputs": [],
      "stateMutability": "nonpayable",
      "type": "function"
    },
    {
      "inputs": [
        {
          "internalType": "address",
          "name": "operator",
          "type": "address"
        },
        {
          "internalType": "bool",
          "name": "approved",
          "type": "bool"
        }
      ],
      "name": "setApprovalForAll",
      "outputs": [],
      "stateMutability": "nonpayable",
      "type": "function"
    },
    {
      "inputs": [
        {
          "internalType": "bytes4",
          "name": "interfaceId",
          "type": "bytes4"
        }
      ],
      "name": "supportsInterface",
      "outputs": [
        {
          "internalType": "bool",
          "name": "",
          "type": "bool"
        }
      ],
      "stateMutability": "view",
      "type": "function"
    },
    {
      "inputs": [],
      "name": "symbol",
      "outputs": [
        {
          "internalType": "string",
          "name": "",
          "type": "string"
        }
      ],
      "stateMutability": "view",
      "type": "function"
    },
    {
      "inputs": [
        {
          "internalType": "uint256",
          "name": "tokenId",
          "type": "uint256"
        }
      ],
      "name": "tokenURI",
      "outputs": [
        {
          "internalType": "string",
          "name": "",
          "type": "string"
        }
      ],
      "stateMutability": "view",
      "type": "function"
    },
    {
      "inputs": [
        {
          "internalType": "address",
          "name": "from",
          "type": "address"
        },
        {
          "internalType": "address",
          "name": "to",
          "type": "address"
        },
        {
          "internalType": "uint256",
          "name": "tokenId",
          "type": "uint256"
        }
      ],
      "name": "transferFrom",
      "outputs": [],
      "stateMutability": "nonpayable",
      "type": "function"
    },
    {
      "inputs": [
        {
          "internalType": "address",
          "name": "newOwner",
          "type": "address"
        }
      ],
      "name": "transferOwnership",
      "outputs": [],
      "stateMutability": "nonpayable",
      "type": "function"
    }
  ],
  "bytecode": "0x60806040523480156200001157600080fd5b50604051620028f4380380620028f48339810160408190526200003491620001b5565b3383836000620000458382620002b7565b506001620000548282620002b7565b5050506001600160a01b0381166200008657604051631e4fbdf760e01b81526000600482015260240160405180910390fd5b62000091816200009e565b5060095550620003839050565b600680546001600160a01b038381166001600160a01b0319831681179093556040519116919082907f8be0079c531659141344cd1fd0a4f28419497f9722a3daafe3b4186f6b6457e090600090a35050565b634e487b7160e01b600052604160045260246000fd5b600082601f8301126200011857600080fd5b81516001600160401b0380821115620001355762000135620000f0565b604051601f8301601f19908116603f01168101908282118183101715620001605762000160620000f0565b816040528381526020925086838588010111156200017d57600080fd5b600091505b83821015620001a1578582018301518183018401529082019062000182565b600093810190920192909252949350505050565b600080600060608486031215620001cb57600080fd5b83516001600160401b0380821115620001e357600080fd5b620001f18783880162000106565b945060208601519150808211156200020857600080fd5b50620002178682870162000106565b925050604084015190509250925092565b600181811c908216806200023d57607f821691505b6020821081036200025e57634e487b7160e01b600052602260045260246000fd5b50919050565b601f821115620002b257600081815260208120601f850160051c810160208610156200028d5750805b601f850160051c820191505b81811015620002ae5782815560010162000299565b5050505b505050565b81516001600160401b03811115620002d357620002d3620000f0565b620002eb81620002e4845462000228565b8462000264565b602080601f8311600181146200032357600084156200030a5750858301515b600019600386901b1c1916600185901b178555620002ae565b600085815260208120601f198616915b82811015620003545788860151825594840194600190910190840162000333565b5085821015620003735787850151600019600388901b60f8161c191681555b5050505050600190811b01905550565b61256180620003936000396000f3fe608060405260043610620001675760003560e01c80637b3d9af711620000c5578063c87b56dd1162000078578063c87b56dd1462000427578063d1a93d18146200044c578063e574609e1462000463578063e9605544146200047b578063e985e9c514620004a0578063f2fde38b14620004c557600080fd5b80637b3d9af7146200036b5780638da5cb5b146200038d57806395d89b4114620003ad578063a22cb46514620003c5578063b88d4fde14620003ea578063c7876ea4146200040f57600080fd5b806342842e0e116200011e57806342842e0e146200027c578063447ffec114620002a15780636352211e14620002c65780636f7bc9be14620002eb57806370a08231146200031f578063715018a6146200035357600080fd5b806301ffc9a7146200016c57806306fdde0314620001a6578063081812fc14620001cd578063095ea7b3146200020b57806312f9b48e146200023257806323b872dd1462000257575b600080fd5b3480156200017957600080fd5b50620001916200018b36600462001417565b620004ea565b60405190151581526020015b60405180910390f35b348015620001b357600080fd5b50620001be6200053e565b6040516200019d91906200148b565b348015620001da57600080fd5b50620001f2620001ec366004620014a0565b620005d8565b6040516001600160a01b0390911681526020016200019d565b3480156200021857600080fd5b50620002306200022a366004620014d7565b62000604565b005b3480156200023f57600080fd5b50620001f262000251366004620014a0565b62000615565b3480156200026457600080fd5b50620002306200027636600462001504565b62000640565b3480156200028957600080fd5b50620002306200029b36600462001504565b620006d5565b348015620002ae57600080fd5b5062000230620002c0366004620014a0565b620006f7565b348015620002d357600080fd5b50620001f2620002e5366004620014a0565b620008c7565b348015620002f857600080fd5b50620001916200030a36600462001545565b600a6020526000908152604090205460ff1681565b3480156200032c57600080fd5b50620003446200033e36600462001545565b620008d4565b6040519081526020016200019d565b3480156200036057600080fd5b50620002306200091e565b3480156200037857600080fd5b50600754620001f2906001600160a01b031681565b3480156200039a57600080fd5b506006546001600160a01b0316620001f2565b348015620003ba57600080fd5b50620001be62000936565b348015620003d257600080fd5b5062000230620003e436600462001572565b62000947565b348015620003f757600080fd5b50620002306200040936600462001641565b62000954565b3480156200041c57600080fd5b506200034460095481565b3480156200043457600080fd5b50620001be62000446366004620014a0565b62000970565b620002306200045d366004620014a0565b620009ee565b3480156200047057600080fd5b506200034460085481565b3480156200048857600080fd5b50620002306200049a366004620016e9565b62000b7b565b348015620004ad57600080fd5b5062000191620004bf36600462001754565b62000c12565b348015620004d257600080fd5b5062000230620004e436600462001545565b62000c40565b60006001600160e01b031982166380ac58cd60e01b14806200051c57506001600160e01b03198216635b5e139f60e01b145b806200053857506301ffc9a760e01b6001600160e01b03198316145b92915050565b6060600080546200054f906200178c565b80601f01602080910402602001604051908101604052809291908181526020018280546200057d906200178c565b8015620005ce5780601f10620005a257610100808354040283529160200191620005ce565b820191906000526020600020905b815481529060010190602001808311620005b057829003601f168201915b5050505050905090565b6000620005e58262000c84565b506000828152600460205260409020546001600160a01b031662000538565b6200061182823362000cbf565b5050565b600b81815481106200062657600080fd5b6000918252602090912001546001600160a01b0316905081565b6001600160a01b0382166200067057604051633250574960e11b8152600060048201526024015b60405180910390fd5b60006200067f83833362000cce565b9050836001600160a01b0316816001600160a01b031614620006cf576040516364283d7b60e01b81526001600160a01b038086166004830152602482018490528216604482015260640162000667565b50505050565b620006f28383836040518060200160405280600081525062000954565b505050565b6200070162000dce565b600754604080516318160ddd60e01b815290516000926001600160a01b0316916318160ddd9160048083019260209291908290030181865afa1580156200074c573d6000803e3d6000fd5b505050506040513d601f19601f82011682018060405250810190620007729190620017c8565b905060008111620007b85760405162461bcd60e51b815260206004820152600f60248201526e139bc81cda185c995cc8195e1a5cdd608a1b604482015260640162000667565b60005b600b54811015620006f2576000600b8281548110620007de57620007de620017e2565b60009182526020822001546007546040516370a0823160e01b81526001600160a01b039283166004820181905294509116906370a0823190602401602060405180830381865afa15801562000837573d6000803e3d6000fd5b505050506040513d601f19601f820116820180604052508101906200085d9190620017c8565b90506001600160a01b0382166108fc856200087984896200180e565b62000885919062001828565b6040518115909202916000818181858888f19350505050158015620008ae573d6000803e3d6000fd5b5050508080620008be906200184b565b915050620007bb565b6000620005388262000c84565b60006001600160a01b03821662000902576040516322718ad960e21b81526000600482015260240162000667565b506001600160a01b031660009081526003602052604090205490565b6200092862000dce565b62000934600062000dfd565b565b6060600180546200054f906200178c565b6200061133838362000e4f565b6200096184848462000640565b620006cf338585858562000ef0565b60606200097d8262000c84565b5060006200099660408051602081019091526000815290565b90506000815111620009b85760405180602001604052806000815250620009e7565b80620009c48462001028565b604051602001620009d792919062001867565b6040516020818303038152906040525b9392505050565b60008160095462000a0091906200180e565b90508034101562000a545760405162461bcd60e51b815260206004820152601f60248201527f496e73756666696369656e74207061796d656e7420666f722073686172657300604482015260640162000667565b60075460405163a9059cbb60e01b8152336004820152602481018490526001600160a01b039091169063a9059cbb906044016020604051808303816000875af115801562000aa6573d6000803e3d6000fd5b505050506040513d601f19601f8201168201806040525081019062000acc91906200189a565b50336000908152600a602052604090205460ff1662000b4257336000818152600a60205260408120805460ff19166001908117909155600b805491820181559091527f0175b7a638427703f0dbe7bb9bbf987a2551717b34e79f33b5b1008d1fa01db90180546001600160a01b03191690911790555b60405182815233907f303026f7fc6b5fe40cf1b1ca575a6f395b34145669a68563671a5fc8334f341d9060200160405180910390a25050565b62000b8562000dce565b818160405162000b9590620013f2565b62000ba2929190620018ba565b604051809103906000f08015801562000bbf573d6000803e3d6000fd5b50600760006101000a8154816001600160a01b0302191690836001600160a01b0316021790555062000bf433600854620010c2565b60016008600082825462000c099190620018ec565b90915550505050565b6001600160a01b03918216600090815260056020908152604080832093909416825291909152205460ff1690565b62000c4a62000dce565b6001600160a01b03811662000c7657604051631e4fbdf760e01b81526000600482015260240162000667565b62000c818162000dfd565b50565b6000818152600260205260408120546001600160a01b0316806200053857604051637e27328960e01b81526004810184905260240162000667565b620006f283838360016200112d565b6000828152600260205260408120546001600160a01b039081169083161562000cfe5762000cfe8184866200123e565b6001600160a01b0381161562000d3f5762000d1e6000856000806200112d565b6001600160a01b038116600090815260036020526040902080546000190190555b6001600160a01b0385161562000d6f576001600160a01b0385166000908152600360205260409020805460010190555b60008481526002602052604080822080546001600160a01b0319166001600160a01b0389811691821790925591518793918516917fddf252ad1be2c89b69c2b068fc378daa952ba7f163c4a11628f55a4df523b3ef91a4949350505050565b6006546001600160a01b03163314620009345760405163118cdaa760e01b815233600482015260240162000667565b600680546001600160a01b038381166001600160a01b0319831681179093556040519116919082907f8be0079c531659141344cd1fd0a4f28419497f9722a3daafe3b4186f6b6457e090600090a35050565b6001600160a01b03821662000e8357604051630b61174360e31b81526001600160a01b038316600482015260240162000667565b6001600160a01b03838116600081815260056020908152604080832094871680845294825291829020805460ff191686151590811790915591519182527f17307eab39ab6107e8899845ad3d59bd9653f200f220920489ca2b5937696c31910160405180910390a3505050565b6001600160a01b0383163b156200102157604051630a85bd0160e11b81526001600160a01b0384169063150b7a029062000f3590889088908790879060040162001902565b6020604051808303816000875af192505050801562000f73575060408051601f3d908101601f1916820190925262000f709181019062001941565b60015b62000fe1573d80801562000fa4576040519150601f19603f3d011682016040523d82523d6000602084013e62000fa9565b606091505b50805160000362000fd957604051633250574960e11b81526001600160a01b038516600482015260240162000667565b805181602001fd5b6001600160e01b03198116630a85bd0160e11b146200101f57604051633250574960e11b81526001600160a01b038516600482015260240162000667565b505b5050505050565b606060006200103783620012a8565b600101905060008167ffffffffffffffff8111156200105a576200105a620015ae565b6040519080825280601f01601f19166020018201604052801562001085576020820181803683370190505b5090508181016020015b600019016f181899199a1a9b1b9c1cb0b131b232b360811b600a86061a8153600a85049450846200108f57509392505050565b6001600160a01b038216620010ee57604051633250574960e11b81526000600482015260240162000667565b6000620010fe8383600062000cce565b90506001600160a01b03811615620006f2576040516339e3563760e11b81526000600482015260240162000667565b80806200114257506001600160a01b03821615155b156200120e576000620011558462000c84565b90506001600160a01b03831615801590620011825750826001600160a01b0316816001600160a01b031614155b801562001198575062001196818462000c12565b155b15620011c35760405163a9fbf51f60e01b81526001600160a01b038416600482015260240162000667565b81156200120c5783856001600160a01b0316826001600160a01b03167f8c5be1e5ebec7d5bd14f71427d1e84f3dd0314c0f7b2291e5b200ac8c7c3b92560405160405180910390a45b505b5050600090815260046020526040902080546001600160a01b0319166001600160a01b0392909216919091179055565b6200124b83838362001387565b620006f2576001600160a01b0383166200127c57604051637e27328960e01b81526004810182905260240162000667565b60405163177e802f60e01b81526001600160a01b03831660048201526024810182905260440162000667565b60008072184f03e93ff9f4daa797ed6e38ed64bf6a1f0160401b8310620012e85772184f03e93ff9f4daa797ed6e38ed64bf6a1f0160401b830492506040015b6d04ee2d6d415b85acef8100000000831062001315576d04ee2d6d415b85acef8100000000830492506020015b662386f26fc1000083106200133457662386f26fc10000830492506010015b6305f5e10083106200134d576305f5e100830492506008015b61271083106200136257612710830492506004015b6064831062001375576064830492506002015b600a8310620005385760010192915050565b60006001600160a01b03831615801590620013ea5750826001600160a01b0316846001600160a01b03161480620013c55750620013c5848462000c12565b80620013ea57506000828152600460205260409020546001600160a01b038481169116145b949350505050565b610bca806200196283390190565b6001600160e01b03198116811462000c8157600080fd5b6000602082840312156200142a57600080fd5b8135620009e78162001400565b60005b83811015620014545781810151838201526020016200143a565b50506000910152565b600081518084526200147781602086016020860162001437565b601f01601f19169290920160200192915050565b602081526000620009e760208301846200145d565b600060208284031215620014b357600080fd5b5035919050565b80356001600160a01b0381168114620014d257600080fd5b919050565b60008060408385031215620014eb57600080fd5b620014f683620014ba565b946020939093013593505050565b6000806000606084860312156200151a57600080fd5b6200152584620014ba565b92506200153560208501620014ba565b9150604084013590509250925092565b6000602082840312156200155857600080fd5b620009e782620014ba565b801515811462000c8157600080fd5b600080604083850312156200158657600080fd5b6200159183620014ba565b91506020830135620015a38162001563565b809150509250929050565b634e487b7160e01b600052604160045260246000fd5b600067ffffffffffffffff80841115620015e257620015e2620015ae565b604051601f8501601f19908116603f011681019082821181831017156200160d576200160d620015ae565b816040528093508581528686860111156200162757600080fd5b858560208301376000602087830101525050509392505050565b600080600080608085870312156200165857600080fd5b6200166385620014ba565b93506200167360208601620014ba565b925060408501359150606085013567ffffffffffffffff8111156200169757600080fd5b8501601f81018713620016a957600080fd5b620016ba87823560208401620015c4565b91505092959194509250565b600082601f830112620016d857600080fd5b620009e783833560208501620015c4565b60008060408385031215620016fd57600080fd5b823567ffffffffffffffff808211156200171657600080fd5b6200172486838701620016c6565b935060208501359150808211156200173b57600080fd5b506200174a85828601620016c6565b9150509250929050565b600080604083850312156200176857600080fd5b6200177383620014ba565b91506200178360208401620014ba565b90509250929050565b600181811c90821680620017a157607f821691505b602082108103620017c257634e487b7160e01b600052602260045260246000fd5b50919050565b600060208284031215620017db57600080fd5b5051919050565b634e487b7160e01b600052603260045260246000fd5b634e487b7160e01b600052601160045260246000fd5b8082028115828204841417620005385762000538620017f8565b6000826200184657634e487b7160e01b600052601260045260246000fd5b500490565b600060018201620018605762001860620017f8565b5060010190565b600083516200187b81846020880162001437565b8351908301906200189181836020880162001437565b01949350505050565b600060208284031215620018ad57600080fd5b8151620009e78162001563565b604081526000620018cf60408301856200145d565b8281036020840152620018e381856200145d565b95945050505050565b80820180821115620005385762000538620017f8565b6001600160a01b038581168252841660208201526040810183905260806060820181905260009062001937908301846200145d565b9695505050505050565b6000602082840312156200195457600080fd5b8151620009e7816200140056fe60806040523480156200001157600080fd5b5060405162000bca38038062000bca8339810160408190526200003491620002ad565b81816003620000448382620003a6565b506004620000538282620003a6565b5050506200006b33620f42406200007360201b60201c565b50506200049a565b6001600160a01b038216620000a35760405163ec442f0560e01b8152600060048201526024015b60405180910390fd5b620000b160008383620000b5565b5050565b6001600160a01b038316620000e4578060026000828254620000d8919062000472565b90915550620001589050565b6001600160a01b03831660009081526020819052604090205481811015620001395760405163391434e360e21b81526001600160a01b038516600482015260248101829052604481018390526064016200009a565b6001600160a01b03841660009081526020819052604090209082900390555b6001600160a01b038216620001765760028054829003905562000195565b6001600160a01b03821660009081526020819052604090208054820190555b816001600160a01b0316836001600160a01b03167fddf252ad1be2c89b69c2b068fc378daa952ba7f163c4a11628f55a4df523b3ef83604051620001db91815260200190565b60405180910390a3505050565b634e487b7160e01b600052604160045260246000fd5b600082601f8301126200021057600080fd5b81516001600160401b03808211156200022d576200022d620001e8565b604051601f8301601f19908116603f01168101908282118183101715620002585762000258620001e8565b816040528381526020925086838588010111156200027557600080fd5b600091505b838210156200029957858201830151818301840152908201906200027a565b600093810190920192909252949350505050565b60008060408385031215620002c157600080fd5b82516001600160401b0380821115620002d957600080fd5b620002e786838701620001fe565b93506020850151915080821115620002fe57600080fd5b506200030d85828601620001fe565b9150509250929050565b600181811c908216806200032c57607f821691505b6020821081036200034d57634e487b7160e01b600052602260045260246000fd5b50919050565b601f821115620003a157600081815260208120601f850160051c810160208610156200037c5750805b601f850160051c820191505b818110156200039d5782815560010162000388565b5050505b505050565b81516001600160401b03811115620003c257620003c2620001e8565b620003da81620003d3845462000317565b8462000353565b602080601f831160018114620004125760008415620003f95750858301515b600019600386901b1c1916600185901b1785556200039d565b600085815260208120601f198616915b82811015620004435788860151825594840194600190910190840162000422565b5085821015620004625787850151600019600388901b60f8161c191681555b5050505050600190811b01905550565b808201808211156200049457634e487b7160e01b600052601160045260246000fd5b92915050565b61072080620004aa6000396000f3fe608060405234801561001057600080fd5b50600436106100935760003560e01c8063313ce56711610066578063313ce567146100fe57806370a082311461010d57806395d89b4114610136578063a9059cbb1461013e578063dd62ed3e1461015157600080fd5b806306fdde0314610098578063095ea7b3146100b657806318160ddd146100d957806323b872dd146100eb575b600080fd5b6100a061018a565b6040516100ad919061056a565b60405180910390f35b6100c96100c43660046105d4565b61021c565b60405190151581526020016100ad565b6002545b6040519081526020016100ad565b6100c96100f93660046105fe565b610236565b604051601281526020016100ad565b6100dd61011b36600461063a565b6001600160a01b031660009081526020819052604090205490565b6100a061025a565b6100c961014c3660046105d4565b610269565b6100dd61015f36600461065c565b6001600160a01b03918216600090815260016020908152604080832093909416825291909152205490565b6060600380546101999061068f565b80601f01602080910402602001604051908101604052809291908181526020018280546101c59061068f565b80156102125780601f106101e757610100808354040283529160200191610212565b820191906000526020600020905b8154815290600101906020018083116101f557829003601f168201915b5050505050905090565b60003361022a818585610277565b60019150505b92915050565b600033610244858285610289565b61024f85858561030c565b506001949350505050565b6060600480546101999061068f565b60003361022a81858561030c565b610284838383600161036b565b505050565b6001600160a01b03838116600090815260016020908152604080832093861683529290522054600019811461030657818110156102f757604051637dc7a0d960e11b81526001600160a01b038416600482015260248101829052604481018390526064015b60405180910390fd5b6103068484848403600061036b565b50505050565b6001600160a01b03831661033657604051634b637e8f60e11b8152600060048201526024016102ee565b6001600160a01b0382166103605760405163ec442f0560e01b8152600060048201526024016102ee565b610284838383610440565b6001600160a01b0384166103955760405163e602df0560e01b8152600060048201526024016102ee565b6001600160a01b0383166103bf57604051634a1406b160e11b8152600060048201526024016102ee565b6001600160a01b038085166000908152600160209081526040808320938716835292905220829055801561030657826001600160a01b0316846001600160a01b03167f8c5be1e5ebec7d5bd14f71427d1e84f3dd0314c0f7b2291e5b200ac8c7c3b9258460405161043291815260200190565b60405180910390a350505050565b6001600160a01b03831661046b57806002600082825461046091906106c9565b909155506104dd9050565b6001600160a01b038316600090815260208190526040902054818110156104be5760405163391434e360e21b81526001600160a01b038516600482015260248101829052604481018390526064016102ee565b6001600160a01b03841660009081526020819052604090209082900390555b6001600160a01b0382166104f957600280548290039055610518565b6001600160a01b03821660009081526020819052604090208054820190555b816001600160a01b0316836001600160a01b03167fddf252ad1be2c89b69c2b068fc378daa952ba7f163c4a11628f55a4df523b3ef8360405161055d91815260200190565b60405180910390a3505050565b600060208083528351808285015260005b818110156105975785810183015185820160400152820161057b565b506000604082860101526040601f19601f8301168501019250505092915050565b80356001600160a01b03811681146105cf57600080fd5b919050565b600080604083850312156105e757600080fd5b6105f0836105b8565b946020939093013593505050565b60008060006060848603121561061357600080fd5b61061c846105b8565b925061062a602085016105b8565b9150604084013590509250925092565b60006020828403121561064c57600080fd5b610655826105b8565b9392505050565b6000806040838503121561066f57600080fd5b610678836105b8565b9150610686602084016105b8565b90509250929050565b600181811c908216806106a357607f821691505b6020821081036106c357634e487b7160e01b600052602260045260246000fd5b50919050565b8082018082111561023057634e487b7160e01b600052601160045260246000fdfea2646970667358221220bdbea2ba519013b64c5c2b207922ab23ecdc7b55f6c060d44c384eef52315d9a64736f6c63430008140033a2646970667358221220670c30b1f325e56cf39b2d796f70217ef2e4af01a0950c965f6242d944f7abd364736f6c63430008140033",
  "linkReferences": {},
  "deployedLinkReferences": {}
}